{
  "_format": "hh-sol-artifact-1",
  "contractName": "StakePrecompileMock",
  "sourceName": "contracts/mock/StakePrecompile.sol",
  "abi": [
    {
      "inputs": [
        {
          "internalType": "bytes32",
          "name": "hotkey",
          "type": "bytes32"
        },
        {
          "internalType": "uint16",
          "name": "netUid",
          "type": "uint16"
        }
      ],
      "name": "addStake",
      "outputs": [],
      "stateMutability": "payable",
      "type": "function"
    },
    {
      "inputs": [
        {
          "internalType": "bytes32",
          "name": "",
          "type": "bytes32"
        },
        {
          "internalType": "uint256",
          "name": "amount",
          "type": "uint256"
        },
        {
          "internalType": "uint16",
          "name": "",
          "type": "uint16"
        }
      ],
      "name": "removeStake",
      "outputs": [],
      "stateMutability": "nonpayable",
      "type": "function"
    },
    {
      "stateMutability": "payable",
      "type": "receive"
    }
  ],
  "bytecode": "0x608060405234801561001057600080fd5b506102e1806100206000396000f3fe60806040526004361061002d5760003560e01c80630636c28b14610039578063b6b11efd1461005b57600080fd5b3661003457005b600080fd5b34801561004557600080fd5b506100596100543660046101b9565b61006d565b005b6100596100693660046101ee565b5050565b604051600090339084908381818185875af1925050503d80600081146100af576040519150601f19603f3d011682016040523d82523d6000602084013e6100b4565b606091505b50509050806100e0576100e0604051806060016040528060358152602001610277603591398447610129565b806101235760405162461bcd60e51b815260206004820152600f60248201526e151c985b9cd9995c8819985a5b1959608a1b604482015260640160405180910390fd5b50505050565b6101708383836040516024016101419392919061021a565b60408051601f198184030181529190526020810180516001600160e01b031663ca47c4eb60e01b179052610175565b505050565b61017e81610181565b50565b60006a636f6e736f6c652e6c6f679050600080835160208501845afa505050565b803561ffff811681146101b457600080fd5b919050565b6000806000606084860312156101ce57600080fd5b83359250602084013591506101e5604085016101a2565b90509250925092565b6000806040838503121561020157600080fd5b82359150610211602084016101a2565b90509250929050565b606081526000845180606084015260005b81811015610248576020818801810151608086840101520161022b565b506000608082850101526080601f19601f83011684010191505083602083015282604083015294935050505056fe5472616e73666572206661696c6564207769746820616d6f756e74546f556e7374616b6520767320746869732e62616c616e63653aa264697066735822122060a71f7d5c507282873530a46c481730ad00ee7877a97a492109b0b1840739d464736f6c63430008160033",
  "linkReferences": {},
  "deployedLinkReferences": {}
}