{
  "_format": "hh-sol-artifact-1",
  "contractName": "Bridge",
  "sourceName": "contracts/v1/Bridge.sol",
  "abi": [
    {
      "inputs": [],
      "name": "AccessControlBadConfirmation",
      "type": "error"
    },
    {
      "inputs": [
        {
          "internalType": "address",
          "name": "account",
          "type": "address"
        },
        {
          "internalType": "bytes32",
          "name": "neededRole",
          "type": "bytes32"
        }
      ],
      "name": "AccessControlUnauthorizedAccount",
      "type": "error"
    },
    {
      "inputs": [
        {
          "internalType": "address",
          "name": "target",
          "type": "address"
        }
      ],
      "name": "AddressEmptyCode",
      "type": "error"
    },
    {
      "inputs": [],
      "name": "BridgePaused",
      "type": "error"
    },
    {
      "inputs": [
        {
          "internalType": "address",
          "name": "implementation",
          "type": "address"
        }
      ],
      "name": "ERC1967InvalidImplementation",
      "type": "error"
    },
    {
      "inputs": [],
      "name": "ERC1967NonPayable",
      "type": "error"
    },
    {
      "inputs": [],
      "name": "ETHTransferFailed",
      "type": "error"
    },
    {
      "inputs": [],
      "name": "EnforcedPause",
      "type": "error"
    },
    {
      "inputs": [],
      "name": "ExpectedPause",
      "type": "error"
    },
    {
      "inputs": [],
      "name": "FailedCall",
      "type": "error"
    },
    {
      "inputs": [],
      "name": "InsufficientAllowance",
      "type": "error"
    },
    {
      "inputs": [],
      "name": "InsufficientBalance",
      "type": "error"
    },
    {
      "inputs": [],
      "name": "InsufficientTokensLocked",
      "type": "error"
    },
    {
      "inputs": [],
      "name": "InvalidAdmin",
      "type": "error"
    },
    {
      "inputs": [],
      "name": "InvalidAmount",
      "type": "error"
    },
    {
      "inputs": [],
      "name": "InvalidAuthority",
      "type": "error"
    },
    {
      "inputs": [],
      "name": "InvalidDestinationChain",
      "type": "error"
    },
    {
      "inputs": [],
      "name": "InvalidInitialization",
      "type": "error"
    },
    {
      "inputs": [],
      "name": "InvalidInput",
      "type": "error"
    },
    {
      "inputs": [],
      "name": "InvalidRecipient",
      "type": "error"
    },
    {
      "inputs": [],
      "name": "InvalidSender",
      "type": "error"
    },
    {
      "inputs": [],
      "name": "InvalidSignature",
      "type": "error"
    },
    {
      "inputs": [],
      "name": "InvalidTokenMetadata",
      "type": "error"
    },
    {
      "inputs": [],
      "name": "NotBridgeAuthority",
      "type": "error"
    },
    {
      "inputs": [],
      "name": "NotInitializing",
      "type": "error"
    },
    {
      "inputs": [],
      "name": "ReentrancyGuardReentrantCall",
      "type": "error"
    },
    {
      "inputs": [],
      "name": "StakingManagerNotSet",
      "type": "error"
    },
    {
      "inputs": [],
      "name": "TokenAlreadyWhitelisted",
      "type": "error"
    },
    {
      "inputs": [],
      "name": "TokenNotWhitelisted",
      "type": "error"
    },
    {
      "inputs": [],
      "name": "TransferAlreadyProcessed",
      "type": "error"
    },
    {
      "inputs": [],
      "name": "TransferFailed",
      "type": "error"
    },
    {
      "inputs": [],
      "name": "UUPSUnauthorizedCallContext",
      "type": "error"
    },
    {
      "inputs": [
        {
          "internalType": "bytes32",
          "name": "slot",
          "type": "bytes32"
        }
      ],
      "name": "UUPSUnsupportedProxiableUUID",
      "type": "error"
    },
    {
      "inputs": [],
      "name": "UnauthorizedTransfer",
      "type": "error"
    },
    {
      "anonymous": false,
      "inputs": [
        {
          "indexed": false,
          "internalType": "uint64",
          "name": "version",
          "type": "uint64"
        }
      ],
      "name": "Initialized",
      "type": "event"
    },
    {
      "anonymous": false,
      "inputs": [
        {
          "indexed": true,
          "internalType": "bytes32",
          "name": "tokenKey",
          "type": "bytes32"
        },
        {
          "components": [
            {
              "internalType": "address",
              "name": "tokenAddress",
              "type": "address"
            },
            {
              "internalType": "bool",
              "name": "managed",
              "type": "bool"
            },
            {
              "internalType": "bool",
              "name": "enabled",
              "type": "bool"
            },
            {
              "internalType": "bool",
              "name": "supported",
              "type": "bool"
            }
          ],
          "indexed": false,
          "internalType": "struct IBridge.TokenInfo",
          "name": "tokenInfo",
          "type": "tuple"
        },
        {
          "components": [
            {
              "internalType": "string",
              "name": "name",
              "type": "string"
            },
            {
              "internalType": "string",
              "name": "symbol",
              "type": "string"
            },
            {
              "internalType": "uint8",
              "name": "decimals",
              "type": "uint8"
            }
          ],
          "indexed": false,
          "internalType": "struct IBridge.TokenMetadata",
          "name": "tokenMetadata",
          "type": "tuple"
        }
      ],
      "name": "NewTokenWhitelisted",
      "type": "event"
    },
    {
      "anonymous": false,
      "inputs": [
        {
          "indexed": false,
          "internalType": "address",
          "name": "account",
          "type": "address"
        }
      ],
      "name": "Paused",
      "type": "event"
    },
    {
      "anonymous": false,
      "inputs": [
        {
          "indexed": true,
          "internalType": "bytes32",
          "name": "role",
          "type": "bytes32"
        },
        {
          "indexed": true,
          "internalType": "bytes32",
          "name": "previousAdminRole",
          "type": "bytes32"
        },
        {
          "indexed": true,
          "internalType": "bytes32",
          "name": "newAdminRole",
          "type": "bytes32"
        }
      ],
      "name": "RoleAdminChanged",
      "type": "event"
    },
    {
      "anonymous": false,
      "inputs": [
        {
          "indexed": true,
          "internalType": "bytes32",
          "name": "role",
          "type": "bytes32"
        },
        {
          "indexed": true,
          "internalType": "address",
          "name": "account",
          "type": "address"
        },
        {
          "indexed": true,
          "internalType": "address",
          "name": "sender",
          "type": "address"
        }
      ],
      "name": "RoleGranted",
      "type": "event"
    },
    {
      "anonymous": false,
      "inputs": [
        {
          "indexed": true,
          "internalType": "bytes32",
          "name": "role",
          "type": "bytes32"
        },
        {
          "indexed": true,
          "internalType": "address",
          "name": "account",
          "type": "address"
        },
        {
          "indexed": true,
          "internalType": "address",
          "name": "sender",
          "type": "address"
        }
      ],
      "name": "RoleRevoked",
      "type": "event"
    },
    {
      "anonymous": false,
      "inputs": [
        {
          "indexed": true,
          "internalType": "bytes32",
          "name": "tokenKey",
          "type": "bytes32"
        },
        {
          "components": [
            {
              "internalType": "address",
              "name": "tokenAddress",
              "type": "address"
            },
            {
              "internalType": "bool",
              "name": "managed",
              "type": "bool"
            },
            {
              "internalType": "bool",
              "name": "enabled",
              "type": "bool"
            },
            {
              "internalType": "bool",
              "name": "supported",
              "type": "bool"
            }
          ],
          "indexed": false,
          "internalType": "struct IBridge.TokenInfo",
          "name": "tokenInfo",
          "type": "tuple"
        }
      ],
      "name": "TokenWhitelistStatusUpdated",
      "type": "event"
    },
    {
      "anonymous": false,
      "inputs": [
        {
          "indexed": true,
          "internalType": "bytes32",
          "name": "tokenKey",
          "type": "bytes32"
        },
        {
          "indexed": true,
          "internalType": "address",
          "name": "wrappedToken",
          "type": "address"
        },
        {
          "indexed": true,
          "internalType": "bool",
          "name": "isWhitelisted",
          "type": "bool"
        },
        {
          "components": [
            {
              "internalType": "string",
              "name": "name",
              "type": "string"
            },
            {
              "internalType": "string",
              "name": "symbol",
              "type": "string"
            },
            {
              "internalType": "uint8",
              "name": "decimals",
              "type": "uint8"
            }
          ],
          "indexed": false,
          "internalType": "struct IBridge.TokenMetadata",
          "name": "tokenMetadata",
          "type": "tuple"
        }
      ],
      "name": "TokenWrapped",
      "type": "event"
    },
    {
      "anonymous": false,
      "inputs": [
        {
          "indexed": false,
          "internalType": "uint256",
          "name": "nonce",
          "type": "uint256"
        },
        {
          "indexed": false,
          "internalType": "uint64",
          "name": "srcChainId",
          "type": "uint64"
        }
      ],
      "name": "TransferRequestExecuted",
      "type": "event"
    },
    {
      "anonymous": false,
      "inputs": [
        {
          "components": [
            {
              "internalType": "uint256",
              "name": "nonce",
              "type": "uint256"
            },
            {
              "internalType": "address",
              "name": "from",
              "type": "address"
            },
            {
              "internalType": "address",
              "name": "to",
              "type": "address"
            },
            {
              "internalType": "bytes32",
              "name": "tokenKey",
              "type": "bytes32"
            },
            {
              "internalType": "uint256",
              "name": "amount",
              "type": "uint256"
            },
            {
              "internalType": "uint64",
              "name": "srcChainId",
              "type": "uint64"
            },
            {
              "internalType": "uint64",
              "name": "destChainId",
              "type": "uint64"
            }
          ],
          "indexed": false,
          "internalType": "struct IBridge.TransferRequest",
          "name": "request",
          "type": "tuple"
        }
      ],
      "name": "TransferRequested",
      "type": "event"
    },
    {
      "anonymous": false,
      "inputs": [
        {
          "indexed": false,
          "internalType": "address",
          "name": "account",
          "type": "address"
        }
      ],
      "name": "Unpaused",
      "type": "event"
    },
    {
      "anonymous": false,
      "inputs": [
        {
          "indexed": true,
          "internalType": "address",
          "name": "implementation",
          "type": "address"
        }
      ],
      "name": "Upgraded",
      "type": "event"
    },
    {
      "stateMutability": "payable",
      "type": "fallback"
    },
    {
      "inputs": [],
      "name": "AUTHORITY_ROLE",
      "outputs": [
        {
          "internalType": "bytes32",
          "name": "",
          "type": "bytes32"
        }
      ],
      "stateMutability": "view",
      "type": "function"
    },
    {
      "inputs": [],
      "name": "DEFAULT_ADMIN_ROLE",
      "outputs": [
        {
          "internalType": "bytes32",
          "name": "",
          "type": "bytes32"
        }
      ],
      "stateMutability": "view",
      "type": "function"
    },
    {
      "inputs": [],
      "name": "MAX_CONFIRMATION_LENGTH",
      "outputs": [
        {
          "internalType": "uint256",
          "name": "",
          "type": "uint256"
        }
      ],
      "stateMutability": "view",
      "type": "function"
    },
    {
      "inputs": [],
      "name": "PAUSER_ROLE",
      "outputs": [
        {
          "internalType": "bytes32",
          "name": "",
          "type": "bytes32"
        }
      ],
      "stateMutability": "view",
      "type": "function"
    },
    {
      "inputs": [],
      "name": "UPGRADE_INTERFACE_VERSION",
      "outputs": [
        {
          "internalType": "string",
          "name": "",
          "type": "string"
        }
      ],
      "stateMutability": "view",
      "type": "function"
    },
    {
      "inputs": [],
      "name": "bridgeNonce",
      "outputs": [
        {
          "internalType": "uint256",
          "name": "",
          "type": "uint256"
        }
      ],
      "stateMutability": "view",
      "type": "function"
    },
    {
      "inputs": [
        {
          "components": [
            {
              "internalType": "address",
              "name": "to",
              "type": "address"
            },
            {
              "internalType": "uint256",
              "name": "amount",
              "type": "uint256"
            },
            {
              "internalType": "uint256",
              "name": "nonce",
              "type": "uint256"
            },
            {
              "internalType": "bytes32",
              "name": "tokenKey",
              "type": "bytes32"
            },
            {
              "internalType": "uint64",
              "name": "srcChainId",
              "type": "uint64"
            },
            {
              "components": [
                {
                  "internalType": "string",
                  "name": "name",
                  "type": "string"
                },
                {
                  "internalType": "string",
                  "name": "symbol",
                  "type": "string"
                },
                {
                  "internalType": "uint8",
                  "name": "decimals",
                  "type": "uint8"
                }
              ],
              "internalType": "struct IBridge.TokenMetadata",
              "name": "tokenMetadata",
              "type": "tuple"
            }
          ],
          "internalType": "struct IBridge.TransferExecutionDetails[]",
          "name": "batch",
          "type": "tuple[]"
        }
      ],
      "name": "executeTransferRequests",
      "outputs": [],
      "stateMutability": "nonpayable",
      "type": "function"
    },
    {
      "inputs": [],
      "name": "getAdmin",
      "outputs": [
        {
          "internalType": "address",
          "name": "",
          "type": "address"
        }
      ],
      "stateMutability": "view",
      "type": "function"
    },
    {
      "inputs": [],
      "name": "getAuthority",
      "outputs": [
        {
          "internalType": "address",
          "name": "",
          "type": "address"
        }
      ],
      "stateMutability": "view",
      "type": "function"
    },
    {
      "inputs": [
        {
          "internalType": "bytes32",
          "name": "role",
          "type": "bytes32"
        }
      ],
      "name": "getRoleAdmin",
      "outputs": [
        {
          "internalType": "bytes32",
          "name": "",
          "type": "bytes32"
        }
      ],
      "stateMutability": "view",
      "type": "function"
    },
    {
      "inputs": [
        {
          "internalType": "bytes32",
          "name": "role",
          "type": "bytes32"
        },
        {
          "internalType": "address",
          "name": "account",
          "type": "address"
        }
      ],
      "name": "grantRole",
      "outputs": [],
      "stateMutability": "nonpayable",
      "type": "function"
    },
    {
      "inputs": [
        {
          "internalType": "bytes32",
          "name": "role",
          "type": "bytes32"
        },
        {
          "internalType": "address",
          "name": "account",
          "type": "address"
        }
      ],
      "name": "hasRole",
      "outputs": [
        {
          "internalType": "bool",
          "name": "",
          "type": "bool"
        }
      ],
      "stateMutability": "view",
      "type": "function"
    },
    {
      "inputs": [
        {
          "internalType": "address",
          "name": "_authority",
          "type": "address"
        },
        {
          "internalType": "address",
          "name": "_admin",
          "type": "address"
        }
      ],
      "name": "initialize",
      "outputs": [],
      "stateMutability": "nonpayable",
      "type": "function"
    },
    {
      "inputs": [],
      "name": "isPaused",
      "outputs": [
        {
          "internalType": "bool",
          "name": "",
          "type": "bool"
        }
      ],
      "stateMutability": "view",
      "type": "function"
    },
    {
      "inputs": [
        {
          "internalType": "bytes32",
          "name": "",
          "type": "bytes32"
        }
      ],
      "name": "metadataForToken",
      "outputs": [
        {
          "internalType": "string",
          "name": "name",
          "type": "string"
        },
        {
          "internalType": "string",
          "name": "symbol",
          "type": "string"
        },
        {
          "internalType": "uint8",
          "name": "decimals",
          "type": "uint8"
        }
      ],
      "stateMutability": "view",
      "type": "function"
    },
    {
      "inputs": [],
      "name": "pause",
      "outputs": [],
      "stateMutability": "nonpayable",
      "type": "function"
    },
    {
      "inputs": [],
      "name": "paused",
      "outputs": [
        {
          "internalType": "bool",
          "name": "",
          "type": "bool"
        }
      ],
      "stateMutability": "view",
      "type": "function"
    },
    {
      "inputs": [
        {
          "internalType": "uint64",
          "name": "",
          "type": "uint64"
        },
        {
          "internalType": "uint256",
          "name": "",
          "type": "uint256"
        }
      ],
      "name": "processedTransfers",
      "outputs": [
        {
          "internalType": "bool",
          "name": "",
          "type": "bool"
        }
      ],
      "stateMutability": "view",
      "type": "function"
    },
    {
      "inputs": [],
      "name": "proxiableUUID",
      "outputs": [
        {
          "internalType": "bytes32",
          "name": "",
          "type": "bytes32"
        }
      ],
      "stateMutability": "view",
      "type": "function"
    },
    {
      "inputs": [
        {
          "internalType": "bytes32",
          "name": "role",
          "type": "bytes32"
        },
        {
          "internalType": "address",
          "name": "callerConfirmation",
          "type": "address"
        }
      ],
      "name": "renounceRole",
      "outputs": [],
      "stateMutability": "nonpayable",
      "type": "function"
    },
    {
      "inputs": [
        {
          "internalType": "bytes32",
          "name": "tokenKey",
          "type": "bytes32"
        },
        {
          "internalType": "address",
          "name": "to",
          "type": "address"
        },
        {
          "internalType": "uint256",
          "name": "amount",
          "type": "uint256"
        },
        {
          "internalType": "uint64",
          "name": "destChainId",
          "type": "uint64"
        }
      ],
      "name": "requestTransfer",
      "outputs": [],
      "stateMutability": "payable",
      "type": "function"
    },
    {
      "inputs": [
        {
          "internalType": "bytes32",
          "name": "role",
          "type": "bytes32"
        },
        {
          "internalType": "address",
          "name": "account",
          "type": "address"
        }
      ],
      "name": "revokeRole",
      "outputs": [],
      "stateMutability": "nonpayable",
      "type": "function"
    },
    {
      "inputs": [
        {
          "internalType": "address",
          "name": "_authority",
          "type": "address"
        }
      ],
      "name": "setAuthority",
      "outputs": [],
      "stateMutability": "nonpayable",
      "type": "function"
    },
    {
      "inputs": [
        {
          "internalType": "contract IStakeManager",
          "name": "_stakingManager",
          "type": "address"
        }
      ],
      "name": "setStakingManager",
      "outputs": [],
      "stateMutability": "nonpayable",
      "type": "function"
    },
    {
      "inputs": [],
      "name": "stakingManager",
      "outputs": [
        {
          "internalType": "contract IStakeManager",
          "name": "",
          "type": "address"
        }
      ],
      "stateMutability": "view",
      "type": "function"
    },
    {
      "inputs": [
        {
          "internalType": "bytes4",
          "name": "interfaceId",
          "type": "bytes4"
        }
      ],
      "name": "supportsInterface",
      "outputs": [
        {
          "internalType": "bool",
          "name": "",
          "type": "bool"
        }
      ],
      "stateMutability": "view",
      "type": "function"
    },
    {
      "inputs": [
        {
          "internalType": "bytes32",
          "name": "",
          "type": "bytes32"
        }
      ],
      "name": "tokensInfo",
      "outputs": [
        {
          "internalType": "address",
          "name": "tokenAddress",
          "type": "address"
        },
        {
          "internalType": "bool",
          "name": "managed",
          "type": "bool"
        },
        {
          "internalType": "bool",
          "name": "enabled",
          "type": "bool"
        },
        {
          "internalType": "bool",
          "name": "supported",
          "type": "bool"
        }
      ],
      "stateMutability": "view",
      "type": "function"
    },
    {
      "inputs": [
        {
          "internalType": "uint256",
          "name": "",
          "type": "uint256"
        }
      ],
      "name": "transferRequests",
      "outputs": [
        {
          "internalType": "uint256",
          "name": "nonce",
          "type": "uint256"
        },
        {
          "internalType": "address",
          "name": "from",
          "type": "address"
        },
        {
          "internalType": "address",
          "name": "to",
          "type": "address"
        },
        {
          "internalType": "bytes32",
          "name": "tokenKey",
          "type": "bytes32"
        },
        {
          "internalType": "uint256",
          "name": "amount",
          "type": "uint256"
        },
        {
          "internalType": "uint64",
          "name": "srcChainId",
          "type": "uint64"
        },
        {
          "internalType": "uint64",
          "name": "destChainId",
          "type": "uint64"
        }
      ],
      "stateMutability": "view",
      "type": "function"
    },
    {
      "inputs": [],
      "name": "unpause",
      "outputs": [],
      "stateMutability": "nonpayable",
      "type": "function"
    },
    {
      "inputs": [
        {
          "internalType": "bytes32",
          "name": "tokenKey",
          "type": "bytes32"
        },
        {
          "internalType": "bool",
          "name": "enabled",
          "type": "bool"
        },
        {
          "internalType": "address",
          "name": "tokenAddress",
          "type": "address"
        }
      ],
      "name": "updateWhitelistStatus",
      "outputs": [],
      "stateMutability": "nonpayable",
      "type": "function"
    },
    {
      "inputs": [
        {
          "internalType": "address",
          "name": "newImplementation",
          "type": "address"
        },
        {
          "internalType": "bytes",
          "name": "data",
          "type": "bytes"
        }
      ],
      "name": "upgradeToAndCall",
      "outputs": [],
      "stateMutability": "payable",
      "type": "function"
    },
    {
      "inputs": [
        {
          "internalType": "bytes32",
          "name": "tokenKey",
          "type": "bytes32"
        },
        {
          "internalType": "bool",
          "name": "enabled",
          "type": "bool"
        },
        {
          "internalType": "address",
          "name": "tokenAddress",
          "type": "address"
        },
        {
          "internalType": "string",
          "name": "tokenSymbol",
          "type": "string"
        },
        {
          "internalType": "string",
          "name": "tokenName",
          "type": "string"
        },
        {
          "internalType": "uint8",
          "name": "tokenDecimals",
          "type": "uint8"
        }
      ],
      "name": "whitelistToken",
      "outputs": [],
      "stateMutability": "nonpayable",
      "type": "function"
    },
    {
      "stateMutability": "payable",
      "type": "receive"
    }
  ],
  "bytecode": "0x60a06040523060805234801561001457600080fd5b50608051613e1061003e600039600081816117be015281816117e8015261193f0152613e106000f3fe608060405260043610620001f75760003560e01c80635e33e5fd116200010b578063a217fddf116200009b578063d547741f1162000069578063d547741f14620006ce578063e2b178a014620006f3578063e63ab1e91462000713578063f0170150146200073857005b8063a217fddf146200062d578063ad3cb1cc1462000644578063b00bba6a1462000686578063b187bd2614620006ab57005b8063770eef9e11620000d9578063770eef9e14620005955780637a9e5e4b14620005cb5780638456cb5914620005f057806391d14854146200060857005b80635e33e5fd14620004fa578063640c89ee14620005395780636c0652fb146200055e5780636e9960c3146200057557005b80633cdf146e11620001875780634a3fba0e11620001555780634a3fba0e146200046d5780634f1ef28614620004a357806352d1902d14620004ba5780635c975abb14620004d257005b80633cdf146e14620003f45780633f4ba83a146200041957806346a0dd5c1462000431578063485cc955146200044857005b8063248a9ca311620001c5578063248a9ca314620003605780632f2ff15d14620003855780633227247a14620003aa57806336568abe14620003cf57005b806301ffc9a7146200020157806303486c40146200023b5780631f87a25014620002fe57806322828cc2146200032557005b36620001ff57005b005b3480156200020e57600080fd5b50620002266200022036600462002269565b620007c6565b60405190151581526020015b60405180910390f35b3480156200024857600080fd5b50620002b06200025a36600462002295565b600560208190526000918252604090912080546001820154600283015460038401546004850154949095015492946001600160a01b039283169491909216926001600160401b0380821691600160401b90041687565b604080519788526001600160a01b0396871660208901529590941694860194909452606085019190915260808401526001600160401b0391821660a08401521660c082015260e00162000232565b3480156200030b57600080fd5b506200031660005481565b60405190815260200162000232565b3480156200033257600080fd5b5060035462000347906001600160a01b031681565b6040516001600160a01b03909116815260200162000232565b3480156200036d57600080fd5b50620003166200037f36600462002295565b620007fe565b3480156200039257600080fd5b50620001ff620003a4366004620022c5565b62000821565b348015620003b757600080fd5b50620001ff620003c9366004620023cc565b62000849565b348015620003dc57600080fd5b50620001ff620003ee366004620022c5565b620009bb565b3480156200040157600080fd5b50620001ff620004133660046200247e565b620009f6565b3480156200042657600080fd5b50620001ff62000aa6565b3480156200043e57600080fd5b5062000316606481565b3480156200045557600080fd5b50620001ff62000467366004620024c5565b62000ace565b3480156200047a57600080fd5b50620003167fd565e3fc066df348a5cbc05a8d6323e00552838041cea2d84cc59876ba37735d81565b620001ff620004b4366004620024f8565b62000cd9565b348015620004c757600080fd5b506200031662000cfe565b348015620004df57600080fd5b5060008051602062003d9b8339815191525460ff1662000226565b3480156200050757600080fd5b5062000226620005193660046200257f565b600460209081526000928352604080842090915290825290205460ff1681565b3480156200054657600080fd5b50620001ff62000558366004620025ac565b62000d1e565b620001ff6200056f36600462002625565b62000e97565b3480156200058257600080fd5b506002546001600160a01b031662000347565b348015620005a257600080fd5b50620005ba620005b436600462002295565b620013be565b6040516200023293929190620026c6565b348015620005d857600080fd5b50620001ff620005ea36600462002703565b62001503565b348015620005fd57600080fd5b50620001ff62001533565b3480156200061557600080fd5b506200022662000627366004620022c5565b62001558565b3480156200063a57600080fd5b5062000316600081565b3480156200065157600080fd5b5062000677604051806040016040528060058152602001640352e302e360dc1b81525081565b60405162000232919062002723565b3480156200069357600080fd5b50620001ff620006a536600462002703565b62001591565b348015620006b857600080fd5b506002546200022690600160a01b900460ff1681565b348015620006db57600080fd5b50620001ff620006ed366004620022c5565b620015c1565b3480156200070057600080fd5b506001546001600160a01b031662000347565b3480156200072057600080fd5b506200031660008051602062003d5b83398151915281565b3480156200074557600080fd5b50620007936200075736600462002295565b6006602052600090815260409020546001600160a01b0381169060ff600160a01b8204811691600160a81b8104821691600160b01b9091041684565b604080516001600160a01b0390951685529215156020850152901515918301919091521515606082015260800162000232565b60006001600160e01b03198216637965db0b60e01b1480620007f857506301ffc9a760e01b6001600160e01b03198316145b92915050565b600090815260008051602062003d7b833981519152602052604090206001015490565b6200082c82620007fe565b6200083781620015e3565b620008438383620015ef565b50505050565b60006200085681620015e3565b60508451118062000868575060508351115b156200088757604051633e16261960e11b815260040160405180910390fd5b60008781526006602052604090208054600160b01b900460ff1615620008c057604051634424109160e01b815260040160405180910390fd5b8054600160b01b6001600160a01b038816600162ff000160a01b031990921691909117811761ffff60a81b191660ff60b01b19600160a81b8a151502161717815560408051606081018252858152602080820188905260ff86168284015260008b8152600790915291909120815182919081906200093f9082620027dd565b5060208201516001820190620009569082620027dd565b50604091820151600291909101805460ff191660ff9092169190911790555189907f80150666a36e18684118023c777f2647e6b371e01dc410a29550745a709117c690620009a89085908590620028a5565b60405180910390a2505050505050505050565b6001600160a01b0381163314620009e55760405163334bd91960e11b815260040160405180910390fd5b620009f182826200169b565b505050565b600062000a0381620015e3565b60008481526006602090815260408083208151608080820184529154600160a81b900460ff1615158184019081526001600160a01b03881680835282860196875289151560608085019182528651928352975115159682019690965290511515818501529351151594840194909452905187927fa158d459581858b2eda49d61c909897cae2b98e26fb0bacc1f6f89d42a372b1692908290030190a25050505050565b60008051602062003d5b83398151915262000ac181620015e3565b62000acb6200171c565b50565b7ff0c57e16840df040f15088dc2f81fe391c3923bec73e23a9662efc9c229c6a008054600160401b810460ff1615906001600160401b031660008115801562000b145750825b90506000826001600160401b0316600114801562000b315750303b155b90508115801562000b40575080155b1562000b5f5760405163f92ee8a960e01b815260040160405180910390fd5b845467ffffffffffffffff19166001178555831562000b8a57845460ff60401b1916600160401b1785555b6001600160a01b03861662000bb257604051630b5eba9f60e41b815260040160405180910390fd5b6001600160a01b03871662000bda57604051636f6a1b8760e11b815260040160405180910390fd5b600180546001600160a01b03808a166001600160a01b031992831617909255600280549289169290911691909117905562000c146200177f565b62000c1e6200177f565b62000c286200178b565b62000c35600087620015ef565b5062000c5160008051602062003d5b83398151915287620015ef565b5062000c7e7fd565e3fc066df348a5cbc05a8d6323e00552838041cea2d84cc59876ba37735d88620015ef565b5062000c896200179f565b831562000cd057845460ff60401b19168555604051600181527fc7f505b2f371ae2175ee4913f4499e1f2633a7b5936321eed1cdaeb6115181d29060200160405180910390a15b50505050505050565b62000ce3620017b3565b62000cee826200185c565b62000cfa828262001869565b5050565b600062000d0a62001934565b5060008051602062003d3b83398151915290565b7fd565e3fc066df348a5cbc05a8d6323e00552838041cea2d84cc59876ba37735d62000d4a81620015e3565b62000d546200197e565b62000d5e620019b1565b81158062000d6c5750606482115b1562000d8b5760405163b4fa3fb360e01b815260040160405180910390fd5b60005b8281101562000e7d5762000dca84848381811062000db05762000db062002939565b905060200281019062000dc491906200294f565b620019eb565b7fcbc66fcdc0aaadd449255e15a56335fbcc6fcdcf3987c59bf5591c1636d84ce284848381811062000e005762000e0062002939565b905060200281019062000e1491906200294f565b6040013585858481811062000e2d5762000e2d62002939565b905060200281019062000e4191906200294f565b62000e549060a081019060800162002970565b604080519283526001600160401b0390911660208301520160405180910390a160010162000d8e565b50620009f1600160008051602062003dbb83398151915255565b62000ea16200197e565b62000eab620019b1565b46816001600160401b03160362000ed55760405163b86ac1ef60e01b815260040160405180910390fd5b6001600160a01b03831662000efd57604051634e46966960e11b815260040160405180910390fd5b8160000362000f1f5760405163162908e360e11b815260040160405180910390fd5b3362000f3e57604051636edaef2f60e11b815260040160405180910390fd5b600084815260066020908152604091829020825160808101845290546001600160a01b038116825260ff600160a01b82048116151593830193909352600160a81b81048316151593820193909352600160b01b9092041615156060820181905262000fbc576040516307c241ad60e51b815260040160405180910390fd5b806020015115801562000fd7575080516001600160a01b0316155b1562001005578234101562000fff57604051631e9acf1760e31b815260040160405180910390fd5b620010a3565b8060200151620010a3578051604051636eb1769f60e11b815233600482015230602482015284916001600160a01b03169063dd62ed3e90604401602060405180830381865afa1580156200105d573d6000803e3d6000fd5b505050506040513d601f19601f820116820180604052508101906200108391906200298e565b1015620010a3576040516313be252b60e01b815260040160405180910390fd5b6040805160e081018252600080548083523360208085019182526001600160a01b038a8116868801908152606087018d8152608088018c81526001600160401b034681811660a08c019081528e831660c08d01908152998b526005978890529b8a208b51815597516001890180549188166001600160a01b031992831617905594516002890180549190971695169490941790945590516003860155516004850155965192909101805493518216600160401b026fffffffffffffffffffffffffffffffff199094169290911691909117919091179055805490806200118983620029a8565b91905055508260200151156200120457825160405163079cc67960e41b8152336004820152602481018790526001600160a01b03909116906379cc679090604401600060405180830381600087803b158015620011e557600080fd5b505af1158015620011fa573d6000803e3d6000fd5b5050505062001314565b82516001600160a01b031662001295576003546001600160a01b0316156200128f57600354604051637acb775760e01b8152600481018790523360248201526001600160a01b0390911690637acb77579087906044016000604051808303818588803b1580156200127457600080fd5b505af115801562001289573d6000803e3d6000fd5b50505050505b62001314565b82516040516323b872dd60e01b8152336004820152306024820152604481018790526001600160a01b03909116906323b872dd906064016020604051808303816000875af1158015620012ec573d6000803e3d6000fd5b505050506040513d601f19601f82011682018060405250810190620013129190620029d0565b505b60408051825181526020808401516001600160a01b0390811691830191909152838301511681830152606080840151908201526080808401519082015260a0808401516001600160401b039081169183019190915260c0808501519091169082015290517f3f9b5dddbaec56df245d81eed98595f8f27d3dca9554dfd6f8fe646aeb76bac69181900360e00190a150505062000843600160008051602062003dbb83398151915255565b600760205260009081526040902080548190620013db9062002738565b80601f0160208091040260200160405190810160405280929190818152602001828054620014099062002738565b80156200145a5780601f106200142e576101008083540402835291602001916200145a565b820191906000526020600020905b8154815290600101906020018083116200143c57829003601f168201915b505050505090806001018054620014719062002738565b80601f01602080910402602001604051908101604052809291908181526020018280546200149f9062002738565b8015620014f05780601f10620014c457610100808354040283529160200191620014f0565b820191906000526020600020905b815481529060010190602001808311620014d257829003601f168201915b5050506002909301549192505060ff1683565b60006200151081620015e3565b50600180546001600160a01b0319166001600160a01b0392909216919091179055565b60008051602062003d5b8339815191526200154e81620015e3565b62000acb62001f36565b600091825260008051602062003d7b833981519152602090815260408084206001600160a01b0393909316845291905290205460ff1690565b60006200159e81620015e3565b50600380546001600160a01b0319166001600160a01b0392909216919091179055565b620015cc82620007fe565b620015d781620015e3565b6200084383836200169b565b62000acb813362001f83565b600060008051602062003d7b8339815191526200160d848462001558565b62001690576000848152602082815260408083206001600160a01b03871684529091529020805460ff19166001179055620016453390565b6001600160a01b0316836001600160a01b0316857f2f8788117e7eff1d82e926ec794901d17c78024a50270940304540a733656f0d60405160405180910390a46001915050620007f8565b6000915050620007f8565b600060008051602062003d7b833981519152620016b9848462001558565b1562001690576000848152602082815260408083206001600160a01b0387168085529252808320805460ff1916905551339287917ff6391f5c32d9c69d2a47ea670b442974b53935d1edc7fd64eb21e047a839171b9190a46001915050620007f8565b6200172662001fc0565b60008051602062003d9b833981519152805460ff191681557f5db9ee0a495bf2e6ff9c91a7834c1ba4fdd244a5e8aa4e537bd38aeae4b073aa335b6040516001600160a01b03909116815260200160405180910390a150565b6200178962001ff2565b565b6200179562001ff2565b620017896200203c565b620017a962001ff2565b6200178962002060565b306001600160a01b037f00000000000000000000000000000000000000000000000000000000000000001614806200183d57507f00000000000000000000000000000000000000000000000000000000000000006001600160a01b03166200183160008051602062003d3b833981519152546001600160a01b031690565b6001600160a01b031614155b15620017895760405163703e46dd60e11b815260040160405180910390fd5b600062000cfa81620015e3565b816001600160a01b03166352d1902d6040518163ffffffff1660e01b8152600401602060405180830381865afa925050508015620018c6575060408051601f3d908101601f19168201909252620018c3918101906200298e565b60015b620018f457604051634c9c8ce360e01b81526001600160a01b03831660048201526024015b60405180910390fd5b60008051602062003d3b83398151915281146200192857604051632a87526960e21b815260048101829052602401620018eb565b620009f183836200206a565b306001600160a01b037f00000000000000000000000000000000000000000000000000000000000000001614620017895760405163703e46dd60e11b815260040160405180910390fd5b60008051602062003d9b8339815191525460ff1615620017895760405163d93c066560e01b815260040160405180910390fd5b60008051602062003dbb833981519152805460011901620019e557604051633ee5aeb560e01b815260040160405180910390fd5b60029055565b6004600062001a0160a084016080850162002970565b6001600160401b031681526020808201929092526040908101600090812084830135825290925290205460ff161562001a4d5760405163247ff34560e01b815260040160405180910390fd5b606080820135600090815260066020908152604080832081516080808201845291546001600160a01b038116825260ff600160a01b82048116151583870152600160a81b82048116151583860152600160b01b90910416151581870152825191820183528482529281018490529081018390529283018290529160016004600062001adf60a088016080890162002970565b6001600160401b03168152602080820192909252604090810160009081208883013582529092529020805460ff1916911515919091179055606083015162001cbd5762001b3060a0850185620029f0565b62001b3c908062002a07565b62001b4b60a0870187620029f0565b62001b5b90602081019062002a07565b3060405162001b6a906200225b565b62001b7a95949392919062002a80565b604051809103906000f08015801562001b97573d6000803e3d6000fd5b50604080516080810182526001600160a01b0380841682526001602080840182815284860183815260608087019485528c01356000908152600690935295909120845181549251965193511515600160b01b0260ff60b01b19941515600160a81b029490941661ffff60a81b19971515600160a01b026001600160a81b0319909416919095161791909117949094169190911717909155909250905062001c4260a0850185620029f0565b6060850135600090815260076020526040902062001c61828262002b9d565b50600190506001600160a01b03831660608601357f8350ea9d2ac1a64b7990b6abfefffa3e2fc4e00730d262032f8c555eb56da06662001ca560a0890189620029f0565b60405162001cb4919062002cff565b60405180910390a45b826060015162001d51576001600160a01b0382166340c10f1962001ce5602087018762002703565b6040516001600160e01b031960e084901b1681526001600160a01b039091166004820152602087013560248201526044015b600060405180830381600087803b15801562001d3257600080fd5b505af115801562001d47573d6000803e3d6000fd5b5050505062000843565b82602001511562001d7b5782516001600160a01b03166340c10f1962001ce5602087018762002703565b82516001600160a01b031662001e84576003546001600160a01b03161562001df4576003546001600160a01b0316638381e1826020860180359062001dc1908862002703565b6040516001600160e01b031960e085901b16815260048101929092526001600160a01b0316602482015260440162001d17565b600062001e05602086018662002703565b6001600160a01b0316856020013560405160006040518083038185875af1925050503d806000811462001e55576040519150601f19603f3d011682016040523d82523d6000602084013e62001e5a565b606091505b505090508062001e7d576040516312171d8360e31b815260040160405180910390fd5b5062000843565b82516001600160a01b031663a9059cbb62001ea3602087018762002703565b6040516001600160e01b031960e084901b1681526001600160a01b039091166004820152602087013560248201526044016020604051808303816000875af115801562001ef4573d6000803e3d6000fd5b505050506040513d601f19601f8201168201806040525081019062001f1a9190620029d0565b5050505050565b600160008051602062003dbb83398151915255565b62001f406200197e565b60008051602062003d9b833981519152805460ff191660011781557f62e78cea01bee320cd4e420270b5ea74000d11b0c9f74754ebdbfc544b05a2583362001761565b62001f8f828262001558565b62000cfa5760405163e2517d3f60e01b81526001600160a01b038216600482015260248101839052604401620018eb565b60008051602062003d9b8339815191525460ff166200178957604051638dfc202b60e01b815260040160405180910390fd5b7ff0c57e16840df040f15088dc2f81fe391c3923bec73e23a9662efc9c229c6a0054600160401b900460ff166200178957604051631afcd79f60e31b815260040160405180910390fd5b6200204662001ff2565b60008051602062003d9b833981519152805460ff19169055565b62001f2162001ff2565b6200207582620020c7565b6040516001600160a01b038316907fbc7cd75a20ee27fd9adebab32041f755214dbc6bffa90cc0225b39da2e5c2d3b90600090a2805115620020bd57620009f182826200212f565b62000cfa620021ab565b806001600160a01b03163b600003620020ff57604051634c9c8ce360e01b81526001600160a01b0382166004820152602401620018eb565b60008051602062003d3b83398151915280546001600160a01b0319166001600160a01b0392909216919091179055565b6060600080846001600160a01b0316846040516200214e919062002d7a565b600060405180830381855af49150503d80600081146200218b576040519150601f19603f3d011682016040523d82523d6000602084013e62002190565b606091505b5091509150620021a2858383620021cb565b95945050505050565b3415620017895760405163b398979f60e01b815260040160405180910390fd5b606082620021e457620021de8262002231565b6200222a565b8151158015620021fc57506001600160a01b0384163b155b156200222757604051639996b31560e01b81526001600160a01b0385166004820152602401620018eb565b50805b9392505050565b805115620022425780518082602001fd5b60405163d6bda27560e01b815260040160405180910390fd5b610fac8062002d8f83390190565b6000602082840312156200227c57600080fd5b81356001600160e01b0319811681146200222a57600080fd5b600060208284031215620022a857600080fd5b5035919050565b6001600160a01b038116811462000acb57600080fd5b60008060408385031215620022d957600080fd5b823591506020830135620022ed81620022af565b809150509250929050565b801515811462000acb57600080fd5b634e487b7160e01b600052604160045260246000fd5b60006001600160401b03808411156200233a576200233a62002307565b604051601f8501601f19908116603f0116810190828211818310171562002365576200236562002307565b816040528093508581528686860111156200237f57600080fd5b858560208301376000602087830101525050509392505050565b600082601f830112620023ab57600080fd5b6200222a838335602085016200231d565b60ff8116811462000acb57600080fd5b60008060008060008060c08789031215620023e657600080fd5b863595506020870135620023fa81620022f8565b945060408701356200240c81620022af565b935060608701356001600160401b03808211156200242957600080fd5b620024378a838b0162002399565b945060808901359150808211156200244e57600080fd5b506200245d89828a0162002399565b92505060a08701356200247081620023bc565b809150509295509295509295565b6000806000606084860312156200249457600080fd5b833592506020840135620024a881620022f8565b91506040840135620024ba81620022af565b809150509250925092565b60008060408385031215620024d957600080fd5b8235620024e681620022af565b91506020830135620022ed81620022af565b600080604083850312156200250c57600080fd5b82356200251981620022af565b915060208301356001600160401b038111156200253557600080fd5b8301601f810185136200254757600080fd5b62002558858235602084016200231d565b9150509250929050565b80356001600160401b03811681146200257a57600080fd5b919050565b600080604083850312156200259357600080fd5b6200259e8362002562565b946020939093013593505050565b60008060208385031215620025c057600080fd5b82356001600160401b0380821115620025d857600080fd5b818501915085601f830112620025ed57600080fd5b813581811115620025fd57600080fd5b8660208260051b85010111156200261357600080fd5b60209290920196919550909350505050565b600080600080608085870312156200263c57600080fd5b8435935060208501356200265081620022af565b925060408501359150620026676060860162002562565b905092959194509250565b60005b838110156200268f57818101518382015260200162002675565b50506000910152565b60008151808452620026b281602086016020860162002672565b601f01601f19169290920160200192915050565b606081526000620026db606083018662002698565b8281036020840152620026ef818662002698565b91505060ff83166040830152949350505050565b6000602082840312156200271657600080fd5b81356200222a81620022af565b6020815260006200222a602083018462002698565b600181811c908216806200274d57607f821691505b6020821081036200276e57634e487b7160e01b600052602260045260246000fd5b50919050565b601f821115620009f1576000816000526020600020601f850160051c810160208610156200279f5750805b601f850160051c820191505b81811015620027c057828155600101620027ab565b505050505050565b600019600383901b1c191660019190911b1790565b81516001600160401b03811115620027f957620027f962002307565b62002811816200280a845462002738565b8462002774565b602080601f831160018114620028455760008415620028305750858301515b6200283c8582620027c8565b865550620027c0565b600085815260208120601f198616915b82811015620028765788860151825594840194600190910190840162002855565b5085821015620028955787850151600019600388901b60f8161c191681555b5050505050600190811b01905550565b6000835460018060a01b038116835260ff8160a01c161515602084015260ff8160a81c161515604084015260ff8160b01c16151560608401525060a060808301528251606060a0840152620028ff61010084018262002698565b90506020840151609f198483030160c08501526200291e828262002698565b91505060ff60408501511660e0840152809150509392505050565b634e487b7160e01b600052603260045260246000fd5b6000823560be198336030181126200296657600080fd5b9190910192915050565b6000602082840312156200298357600080fd5b6200222a8262002562565b600060208284031215620029a157600080fd5b5051919050565b600060018201620029c957634e487b7160e01b600052601160045260246000fd5b5060010190565b600060208284031215620029e357600080fd5b81516200222a81620022f8565b60008235605e198336030181126200296657600080fd5b6000808335601e1984360301811262002a1f57600080fd5b8301803591506001600160401b0382111562002a3a57600080fd5b60200191503681900382131562002a5057600080fd5b9250929050565b81835281816020850137506000828201602090810191909152601f909101601f19169091010190565b60608152600062002a9660608301878962002a57565b828103602084015262002aab81868862002a57565b91505060018060a01b03831660408301529695505050505050565b6001600160401b0383111562002ae05762002ae062002307565b62002af88362002af1835462002738565b8362002774565b6000601f84116001811462002b2b576000851562002b165750838201355b62002b228682620027c8565b84555062001f1a565b600083815260209020601f19861690835b8281101562002b5e578685013582556020948501946001909201910162002b3c565b508682101562002b7c5760001960f88860031b161c19848701351681555b505060018560011b0183555050505050565b60008135620007f881620023bc565b62002ba9828362002a07565b6001600160401b0381111562002bc35762002bc362002307565b62002bdb8162002bd4855462002738565b8562002774565b6000601f82116001811462002c0e576000831562002bf95750838201355b62002c058482620027c8565b86555062002c6b565b600085815260209020601f19841690835b8281101562002c41578685013582556020948501946001909201910162002c1f565b508482101562002c5f5760001960f88660031b161c19848701351681555b505060018360011b0185555b5050505062002c7e602083018362002a07565b62002c8e81836001860162002ac6565b505062000cfa62002ca26040840162002b8e565b6002830160ff821660ff198254161781555050565b6000808335601e1984360301811262002ccf57600080fd5b83016020810192503590506001600160401b0381111562002cef57600080fd5b80360382131562002a5057600080fd5b60208152600062002d11838462002cb7565b6060602085015262002d2860808501828462002a57565b91505062002d3a602085018562002cb7565b848303601f1901604086015262002d5383828462002a57565b92505050604084013562002d6781620023bc565b60ff166060939093019290925250919050565b60008251620029668184602087016200267256fe60806040523480156200001157600080fd5b5060405162000fac38038062000fac8339810160408190526200003491620001ea565b8282600362000044838262000308565b50600462000053828262000308565b5062000065915060009050826200006f565b50505050620003d4565b60008281526005602090815260408083206001600160a01b038516845290915281205460ff16620001185760008381526005602090815260408083206001600160a01b03861684529091529020805460ff19166001179055620000cf3390565b6001600160a01b0316826001600160a01b0316847f2f8788117e7eff1d82e926ec794901d17c78024a50270940304540a733656f0d60405160405180910390a45060016200011c565b5060005b92915050565b634e487b7160e01b600052604160045260246000fd5b600082601f8301126200014a57600080fd5b81516001600160401b038082111562000167576200016762000122565b604051601f8301601f19908116603f0116810190828211818310171562000192576200019262000122565b8160405283815260209250866020858801011115620001b057600080fd5b600091505b83821015620001d45785820183015181830184015290820190620001b5565b6000602085830101528094505050505092915050565b6000806000606084860312156200020057600080fd5b83516001600160401b03808211156200021857600080fd5b620002268783880162000138565b945060208601519150808211156200023d57600080fd5b506200024c8682870162000138565b604086015190935090506001600160a01b03811681146200026c57600080fd5b809150509250925092565b600181811c908216806200028c57607f821691505b602082108103620002ad57634e487b7160e01b600052602260045260246000fd5b50919050565b601f82111562000303576000816000526020600020601f850160051c81016020861015620002de5750805b601f850160051c820191505b81811015620002ff57828155600101620002ea565b5050505b505050565b81516001600160401b0381111562000324576200032462000122565b6200033c8162000335845462000277565b84620002b3565b602080601f8311600181146200037457600084156200035b5750858301515b600019600386901b1c1916600185901b178555620002ff565b600085815260208120601f198616915b82811015620003a55788860151825594840194600190910190840162000384565b5085821015620003c45787850151600019600388901b60f8161c191681555b5050505050600190811b01905550565b610bc880620003e46000396000f3fe608060405234801561001057600080fd5b506004361061012c5760003560e01c806340c10f19116100ad57806395d89b411161007157806395d89b4114610288578063a217fddf14610290578063a9059cbb14610298578063d547741f146102ab578063dd62ed3e146102be57600080fd5b806340c10f191461021357806342966c681461022657806370a082311461023957806379cc67901461026257806391d148541461027557600080fd5b8063248a9ca3116100f4578063248a9ca3146101a657806324d7806c146101c95780632f2ff15d146101dc578063313ce567146101f157806336568abe1461020057600080fd5b806301ffc9a71461013157806306fdde0314610159578063095ea7b31461016e57806318160ddd1461018157806323b872dd14610193575b600080fd5b61014461013f3660046109ab565b6102f7565b60405190151581526020015b60405180910390f35b61016161032e565b60405161015091906109dc565b61014461017c366004610a47565b6103c0565b6002545b604051908152602001610150565b6101446101a1366004610a71565b6103d8565b6101856101b4366004610aad565b60009081526005602052604090206001015490565b6101446101d7366004610ac6565b6103fc565b6101ef6101ea366004610ae1565b610408565b005b60405160128152602001610150565b6101ef61020e366004610ae1565b610433565b6101ef610221366004610a47565b61046b565b6101ef610234366004610aad565b610480565b610185610247366004610ac6565b6001600160a01b031660009081526020819052604090205490565b6101ef610270366004610a47565b61048d565b610144610283366004610ae1565b6104a2565b6101616104cd565b610185600081565b6101446102a6366004610a47565b6104dc565b6101ef6102b9366004610ae1565b6104ea565b6101856102cc366004610b0d565b6001600160a01b03918216600090815260016020908152604080832093909416825291909152205490565b60006001600160e01b03198216637965db0b60e01b148061032857506301ffc9a760e01b6001600160e01b03198316145b92915050565b60606003805461033d90610b37565b80601f016020809104026020016040519081016040528092919081815260200182805461036990610b37565b80156103b65780601f1061038b576101008083540402835291602001916103b6565b820191906000526020600020905b81548152906001019060200180831161039957829003601f168201915b5050505050905090565b6000336103ce81858561050f565b5060019392505050565b6000336103e685828561051c565b6103f1858585610599565b506001949350505050565b600061032881836104a2565b600082815260056020526040902060010154610423816105f8565b61042d8383610602565b50505050565b6001600160a01b038116331461045c5760405163334bd91960e11b815260040160405180910390fd5b6104668282610696565b505050565b6000610476816105f8565b6104668383610703565b61048a338261073d565b50565b6000610498816105f8565b610466838361073d565b60009182526005602090815260408084206001600160a01b0393909316845291905290205460ff1690565b60606004805461033d90610b37565b6000336103ce818585610599565b600082815260056020526040902060010154610505816105f8565b61042d8383610696565b6104668383836001610773565b6001600160a01b03838116600090815260016020908152604080832093861683529290522054600019811461042d578181101561058a57604051637dc7a0d960e11b81526001600160a01b038416600482015260248101829052604481018390526064015b60405180910390fd5b61042d84848484036000610773565b6001600160a01b0383166105c357604051634b637e8f60e11b815260006004820152602401610581565b6001600160a01b0382166105ed5760405163ec442f0560e01b815260006004820152602401610581565b610466838383610848565b61048a8133610972565b600061060e83836104a2565b61068e5760008381526005602090815260408083206001600160a01b03861684529091529020805460ff191660011790556106463390565b6001600160a01b0316826001600160a01b0316847f2f8788117e7eff1d82e926ec794901d17c78024a50270940304540a733656f0d60405160405180910390a4506001610328565b506000610328565b60006106a283836104a2565b1561068e5760008381526005602090815260408083206001600160a01b0386168085529252808320805460ff1916905551339286917ff6391f5c32d9c69d2a47ea670b442974b53935d1edc7fd64eb21e047a839171b9190a4506001610328565b6001600160a01b03821661072d5760405163ec442f0560e01b815260006004820152602401610581565b61073960008383610848565b5050565b6001600160a01b03821661076757604051634b637e8f60e11b815260006004820152602401610581565b61073982600083610848565b6001600160a01b03841661079d5760405163e602df0560e01b815260006004820152602401610581565b6001600160a01b0383166107c757604051634a1406b160e11b815260006004820152602401610581565b6001600160a01b038085166000908152600160209081526040808320938716835292905220829055801561042d57826001600160a01b0316846001600160a01b03167f8c5be1e5ebec7d5bd14f71427d1e84f3dd0314c0f7b2291e5b200ac8c7c3b9258460405161083a91815260200190565b60405180910390a350505050565b6001600160a01b0383166108735780600260008282546108689190610b71565b909155506108e59050565b6001600160a01b038316600090815260208190526040902054818110156108c65760405163391434e360e21b81526001600160a01b03851660048201526024810182905260448101839052606401610581565b6001600160a01b03841660009081526020819052604090209082900390555b6001600160a01b03821661090157600280548290039055610920565b6001600160a01b03821660009081526020819052604090208054820190555b816001600160a01b0316836001600160a01b03167fddf252ad1be2c89b69c2b068fc378daa952ba7f163c4a11628f55a4df523b3ef8360405161096591815260200190565b60405180910390a3505050565b61097c82826104a2565b6107395760405163e2517d3f60e01b81526001600160a01b038216600482015260248101839052604401610581565b6000602082840312156109bd57600080fd5b81356001600160e01b0319811681146109d557600080fd5b9392505050565b60006020808352835180602085015260005b81811015610a0a578581018301518582016040015282016109ee565b506000604082860101526040601f19601f8301168501019250505092915050565b80356001600160a01b0381168114610a4257600080fd5b919050565b60008060408385031215610a5a57600080fd5b610a6383610a2b565b946020939093013593505050565b600080600060608486031215610a8657600080fd5b610a8f84610a2b565b9250610a9d60208501610a2b565b9150604084013590509250925092565b600060208284031215610abf57600080fd5b5035919050565b600060208284031215610ad857600080fd5b6109d582610a2b565b60008060408385031215610af457600080fd5b82359150610b0460208401610a2b565b90509250929050565b60008060408385031215610b2057600080fd5b610b2983610a2b565b9150610b0460208401610a2b565b600181811c90821680610b4b57607f821691505b602082108103610b6b57634e487b7160e01b600052602260045260246000fd5b50919050565b8082018082111561032857634e487b7160e01b600052601160045260246000fdfea2646970667358221220f5acc469668f196d57e9581f70df6c2951198c2f0aa3af65678bab54b180868964736f6c63430008160033360894a13ba1a3210667c828492db98dca3e2076cc3735a920a3ca505d382bbc65d7a28e3265b37a6474929f336521b332c1681b933f6cb9f3376673440d862a02dd7bc7dec4dceedda775e58dd541e08a116c6c53815c0bd028192f7b626800cd5ed15c6e187e77e9aee88184c21f4f2182ab5827cb3b7e07fbedcd63f033009b779b17422d0df92223018b32b4d1fa46e071723d6817e2486d003becc55f00a2646970667358221220c617b86a0bee7f7c2158989d789dfbe8abe1faadc61c8c5831b30c53b3b03e4464736f6c63430008160033",
  "linkReferences": {},
  "deployedLinkReferences": {}
}