{"contracts/v1/StakeManager.sol":{"StakeManager":{"abi":[{"inputs":[],"stateMutability":"nonpayable","type":"constructor"},{"inputs":[{"internalType":"address","name":"target","type":"address"}],"name":"AddressEmptyCode","type":"error"},{"inputs":[{"internalType":"address","name":"implementation","type":"address"}],"name":"ERC1967InvalidImplementation","type":"error"},{"inputs":[],"name":"ERC1967NonPayable","type":"error"},{"inputs":[],"name":"FailedCall","type":"error"},{"inputs":[],"name":"InsufficientStakedBalance","type":"error"},{"inputs":[],"name":"InvalidAddress","type":"error"},{"inputs":[],"name":"InvalidInitialization","type":"error"},{"inputs":[],"name":"NotAdmin","type":"error"},{"inputs":[],"name":"NotBridge","type":"error"},{"inputs":[],"name":"NotInitializing","type":"error"},{"inputs":[{"internalType":"address","name":"owner","type":"address"}],"name":"OwnableInvalidOwner","type":"error"},{"inputs":[{"internalType":"address","name":"account","type":"address"}],"name":"OwnableUnauthorizedAccount","type":"error"},{"inputs":[],"name":"ReentrancyGuardReentrantCall","type":"error"},{"inputs":[],"name":"RewardRecipientAlreadyExists","type":"error"},{"inputs":[],"name":"RewardRecipientNotFound","type":"error"},{"inputs":[],"name":"StakingFailed","type":"error"},{"inputs":[],"name":"UUPSUnauthorizedCallContext","type":"error"},{"inputs":[{"internalType":"bytes32","name":"slot","type":"bytes32"}],"name":"UUPSUnsupportedProxiableUUID","type":"error"},{"inputs":[],"name":"UnstakingFailed","type":"error"},{"anonymous":false,"inputs":[{"indexed":false,"internalType":"uint64","name":"version","type":"uint64"}],"name":"Initialized","type":"event"},{"anonymous":false,"inputs":[{"indexed":true,"internalType":"address","name":"previousOwner","type":"address"},{"indexed":true,"internalType":"address","name":"newOwner","type":"address"}],"name":"OwnershipTransferred","type":"event"},{"anonymous":false,"inputs":[{"indexed":true,"internalType":"address","name":"user","type":"address"},{"indexed":false,"internalType":"uint256","name":"amount","type":"uint256"}],"name":"TokensStaked","type":"event"},{"anonymous":false,"inputs":[{"indexed":true,"internalType":"address","name":"user","type":"address"},{"indexed":false,"internalType":"uint256","name":"amount","type":"uint256"}],"name":"TokensUnstaked","type":"event"},{"anonymous":false,"inputs":[{"indexed":true,"internalType":"address","name":"implementation","type":"address"}],"name":"Upgraded","type":"event"},{"inputs":[],"name":"NORMALIZER","outputs":[{"internalType":"uint64","name":"","type":"uint64"}],"stateMutability":"view","type":"function"},{"inputs":[],"name":"ROOT_NET_UID","outputs":[{"internalType":"uint16","name":"","type":"uint16"}],"stateMutability":"view","type":"function"},{"inputs":[],"name":"UPGRADE_INTERFACE_VERSION","outputs":[{"internalType":"string","name":"","type":"string"}],"stateMutability":"view","type":"function"},{"inputs":[{"internalType":"address","name":"rewardAddress","type":"address"}],"name":"addBridgeParticipantReward","outputs":[],"stateMutability":"nonpayable","type":"function"},{"inputs":[],"name":"bridge","outputs":[{"internalType":"contract IBridge","name":"","type":"address"}],"stateMutability":"view","type":"function"},{"inputs":[],"name":"daturaStakingHotkey","outputs":[{"internalType":"bytes32","name":"","type":"bytes32"}],"stateMutability":"view","type":"function"},{"inputs":[{"internalType":"contract IBridge","name":"_bridge","type":"address"},{"internalType":"uint256","name":"_rewardRate","type":"uint256"},{"internalType":"bytes32","name":"_daturaHotkey","type":"bytes32"},{"internalType":"address","name":"_stakePrecompile","type":"address"}],"name":"initialize","outputs":[],"stateMutability":"nonpayable","type":"function"},{"inputs":[],"name":"owner","outputs":[{"internalType":"address","name":"","type":"address"}],"stateMutability":"view","type":"function"},{"inputs":[],"name":"proxiableUUID","outputs":[{"internalType":"bytes32","name":"","type":"bytes32"}],"stateMutability":"view","type":"function"},{"inputs":[{"internalType":"address","name":"rewardAddress","type":"address"}],"name":"removeBridgeParticipantReward","outputs":[],"stateMutability":"nonpayable","type":"function"},{"inputs":[],"name":"renounceOwnership","outputs":[],"stateMutability":"nonpayable","type":"function"},{"inputs":[],"name":"rewardRate","outputs":[{"internalType":"uint256","name":"","type":"uint256"}],"stateMutability":"view","type":"function"},{"inputs":[{"internalType":"uint256","name":"amount","type":"uint256"},{"internalType":"address","name":"user","type":"address"}],"name":"stake","outputs":[],"stateMutability":"payable","type":"function"},{"inputs":[],"name":"stakePrecompile","outputs":[{"internalType":"address","name":"","type":"address"}],"stateMutability":"view","type":"function"},{"inputs":[{"internalType":"address","name":"","type":"address"}],"name":"stakes","outputs":[{"internalType":"uint256","name":"amount","type":"uint256"},{"internalType":"uint64","name":"lastBlockClaimed","type":"uint64"}],"stateMutability":"view","type":"function"},{"inputs":[{"internalType":"address","name":"newOwner","type":"address"}],"name":"transferOwnership","outputs":[],"stateMutability":"nonpayable","type":"function"},{"inputs":[{"internalType":"uint256","name":"amount","type":"uint256"},{"internalType":"address","name":"user","type":"address"}],"name":"unstake","outputs":[],"stateMutability":"nonpayable","type":"function"},{"inputs":[{"internalType":"address","name":"newImplementation","type":"address"},{"internalType":"bytes","name":"data","type":"bytes"}],"name":"upgradeToAndCall","outputs":[],"stateMutability":"payable","type":"function"},{"stateMutability":"payable","type":"receive"}],"evm":{"bytecode":{"linkReferences":{},"object":"60a06040523060805234801561001457600080fd5b507ff0c57e16840df040f15088dc2f81fe391c3923bec73e23a9662efc9c229c6a00805468010000000000000000810460ff1615906001600160401b031660008115801561005f5750825b90506000826001600160401b0316600114801561007b5750303b155b905081158015610089575080155b156100a75760405163f92ee8a960e01b815260040160405180910390fd5b84546001600160401b031916600117855583156100d557845460ff60401b1916680100000000000000001785555b831561011b57845460ff60401b19168555604051600181527fc7f505b2f371ae2175ee4913f4499e1f2633a7b5936321eed1cdaeb6115181d29060200160405180910390a15b50505050506080516116e261014960003960008181610b1901528181610b420152610c8801526116e26000f3fe60806040526004361061010d5760003560e01c80638381e18211610095578063b12f799811610064578063b12f79981461033c578063d544f6741461035c578063e78cea9214610372578063f2fde38b14610392578063f82b45be146103b257600080fd5b80638381e1821461026d5780638da5cb5b1461028d578063ad3cb1cc146102de578063af03528b1461031c57600080fd5b80634f1ef286116100dc5780634f1ef286146101f957806352d1902d1461020c578063715018a61461022f5780637acb7757146102445780637b0a47ee1461025757600080fd5b806307e72f451461011957806316934fc414610153578063230cde7b146101af578063294e8d0e146101d757600080fd5b3661011457005b600080fd5b34801561012557600080fd5b50610135670de0b6b3a764000081565b60405167ffffffffffffffff90911681526020015b60405180910390f35b34801561015f57600080fd5b5061019161016e3660046113b0565b6004602052600090815260409020805460019091015467ffffffffffffffff1682565b6040805192835267ffffffffffffffff90911660208301520161014a565b3480156101bb57600080fd5b506101c4600081565b60405161ffff909116815260200161014a565b3480156101e357600080fd5b506101f76101f23660046113cd565b6103d2565b005b6101f761020736600461142d565b6105a6565b34801561021857600080fd5b506102216105c5565b60405190815260200161014a565b34801561023b57600080fd5b506101f76105e2565b6101f76102523660046114f1565b6105f6565b34801561026357600080fd5b5061022160025481565b34801561027957600080fd5b506101f76102883660046114f1565b6106c6565b34801561029957600080fd5b507f9016d09d72d40fdae2fd8ceac6b6234c7706214fd39c1cd1e609a0528c199300546001600160a01b03165b6040516001600160a01b03909116815260200161014a565b3480156102ea57600080fd5b5061030f604051806040016040528060058152602001640352e302e360dc1b81525081565b60405161014a9190611545565b34801561032857600080fd5b506000546102c6906001600160a01b031681565b34801561034857600080fd5b506101f76103573660046113b0565b610a04565b34801561036857600080fd5b5061022160015481565b34801561037e57600080fd5b506003546102c6906001600160a01b031681565b34801561039e57600080fd5b506101f76103ad3660046113b0565b610a67565b3480156103be57600080fd5b506101f76103cd3660046113b0565b610aaa565b7ff0c57e16840df040f15088dc2f81fe391c3923bec73e23a9662efc9c229c6a008054600160401b810460ff16159067ffffffffffffffff166000811580156104185750825b905060008267ffffffffffffffff1660011480156104355750303b155b905081158015610443575080155b156104615760405163f92ee8a960e01b815260040160405180910390fd5b845467ffffffffffffffff19166001178555831561048b57845460ff60401b1916600160401b1785555b600380546001600160a01b0319166001600160a01b038b1617905560028890556104b3610ae5565b600187905560035460408051636e9960c360e01b815290516000926001600160a01b031691636e9960c39160048083019260209291908290030181865afa158015610502573d6000803e3d6000fd5b505050506040513d601f19601f820116820180604052508101906105269190611578565b905061053181610aed565b600080546001600160a01b0319166001600160a01b038916179055610554610afe565b50831561059b57845460ff60401b19168555604051600181527fc7f505b2f371ae2175ee4913f4499e1f2633a7b5936321eed1cdaeb6115181d29060200160405180910390a15b505050505050505050565b6105ae610b0e565b6105b782610bb3565b6105c18282610bbb565b5050565b60006105cf610c7d565b5060008051602061168d83398151915290565b6105ea610cc6565b6105f46000610d21565b565b6003546001600160a01b0316331461062157604051637fea9dc560e01b815260040160405180910390fd5b6001600160a01b038116600090815260046020526040812080548492906106499084906115ab565b90915550610658905082610d92565b6001600160a01b038116600081815260046020908152604091829020600101805467ffffffffffffffff19164367ffffffffffffffff1617905590518481527fb539ca1e5c8d398ddf1c41c30166f33404941683be4683319b57669a93dad4ef910160405180910390a25050565b6106ce610e58565b6003546001600160a01b031633146106f957604051637fea9dc560e01b815260040160405180910390fd5b6001600160a01b03811660009081526004602052604090208054831115610733576040516345a5c39960e11b815260040160405180910390fd5b600181015460009061074f9067ffffffffffffffff16436115be565b905060008167ffffffffffffffff16600254846000015461077091906115df565b61077a91906115df565b90506000610790670de0b6b3a7640000836115f6565b905060008682116107a157816107a3565b865b905060006107b182896115ab565b905060006107c06002846115f6565b905060006107ce8285611618565b90506000806107dd6005610ea2565b11156107fa576107ed6005610ea2565b6107f790836115f6565b90505b60006108066005610ea2565b61081090836115df565b61081a9087611618565b60018b01805467ffffffffffffffff19164367ffffffffffffffff161790558a549091508c908b90600090610850908490611618565b9091555061085f905085610eb2565b60006001600160a01b038c16610875838f6115ab565b604051600081818185875af1925050503d80600081146108b1576040519150601f19603f3d011682016040523d82523d6000602084013e6108b6565b606091505b50509050806108d857604051635d7c508f60e11b815260040160405180910390fd5b60006108e46005610ea2565b111561098d5760005b6108f76005610ea2565b81101561098b57600061090b600583610f7c565b90506000816001600160a01b03168660405160006040518083038185875af1925050503d806000811461095a576040519150601f19603f3d011682016040523d82523d6000602084013e61095f565b606091505b505090508061098157604051635d7c508f60e11b815260040160405180910390fd5b50506001016108ed565b505b8b6001600160a01b03167f9845e367b683334e5c0b12d7b81721ac518e649376fa65e3d68324e8f34f26798e6040516109c891815260200190565b60405180910390a250505050505050505050506105c160017f9b779b17422d0df92223018b32b4d1fa46e071723d6817e2486d003becc55f0055565b610a0c610cc6565b6001600160a01b038116610a335760405163e6c4247b60e01b815260040160405180910390fd5b610a3e600582610fb5565b15610a5c57604051632bc30e8360e11b815260040160405180910390fd5b6105c1600582610fd7565b610a6f610cc6565b6001600160a01b038116610a9e57604051631e4fbdf760e01b8152600060048201526024015b60405180910390fd5b610aa781610d21565b50565b610ab2610cc6565b610abd600582610fb5565b610ada57604051633568a07760e11b815260040160405180910390fd5b6105c1600582610fec565b6105f4611001565b610af5611001565b610aa78161104a565b610b06611001565b6105f4611052565b306001600160a01b037f0000000000000000000000000000000000000000000000000000000000000000161480610b9557507f00000000000000000000000000000000000000000000000000000000000000006001600160a01b0316610b8960008051602061168d833981519152546001600160a01b031690565b6001600160a01b031614155b156105f45760405163703e46dd60e11b815260040160405180910390fd5b610aa7610cc6565b816001600160a01b03166352d1902d6040518163ffffffff1660e01b8152600401602060405180830381865afa925050508015610c15575060408051601f3d908101601f19168201909252610c129181019061162b565b60015b610c3d57604051634c9c8ce360e01b81526001600160a01b0383166004820152602401610a95565b60008051602061168d8339815191528114610c6e57604051632a87526960e21b815260048101829052602401610a95565b610c78838361105a565b505050565b306001600160a01b037f000000000000000000000000000000000000000000000000000000000000000016146105f45760405163703e46dd60e11b815260040160405180910390fd5b33610cf87f9016d09d72d40fdae2fd8ceac6b6234c7706214fd39c1cd1e609a0528c199300546001600160a01b031690565b6001600160a01b0316146105f45760405163118cdaa760e01b8152336004820152602401610a95565b7f9016d09d72d40fdae2fd8ceac6b6234c7706214fd39c1cd1e609a0528c19930080546001600160a01b031981166001600160a01b03848116918217845560405192169182907f8be0079c531659141344cd1fd0a4f28419497f9722a3daafe3b4186f6b6457e090600090a3505050565b60008054600154604080516024810192909252604480830185905281518084039091018152606490920181526020820180516001600160e01b031663b6b11efd60e01b179052516001600160a01b03909216929183918591610df49190611644565b60006040518083038185875af1925050503d8060008114610e31576040519150601f19603f3d011682016040523d82523d6000602084013e610e36565b606091505b5050905080610c785760405163a437293760e01b815260040160405180910390fd5b7f9b779b17422d0df92223018b32b4d1fa46e071723d6817e2486d003becc55f00805460011901610e9c57604051633ee5aeb560e01b815260040160405180910390fd5b60029055565b6000610eac825490565b92915050565b6000805460015460408051602481019290925260448201859052606480830185905281518084039091018152608490920181526020820180516001600160e01b0316630636c28b60e01b179052516001600160a01b0390921692918391610f1891611644565b6000604051808303816000865af19150503d8060008114610f55576040519150601f19603f3d011682016040523d82523d6000602084013e610f5a565b606091505b5050905080610c7857604051635d7c508f60e11b815260040160405180910390fd5b6000610f8883836110b0565b9392505050565b60017f9b779b17422d0df92223018b32b4d1fa46e071723d6817e2486d003becc55f0055565b6001600160a01b03811660009081526001830160205260408120541515610f88565b6000610f88836001600160a01b0384166110da565b6000610f88836001600160a01b038416611129565b7ff0c57e16840df040f15088dc2f81fe391c3923bec73e23a9662efc9c229c6a0054600160401b900460ff166105f457604051631afcd79f60e31b815260040160405180910390fd5b610a6f611001565b610f8f611001565b61106382611223565b6040516001600160a01b038316907fbc7cd75a20ee27fd9adebab32041f755214dbc6bffa90cc0225b39da2e5c2d3b90600090a28051156110a857610c788282611288565b6105c16112fe565b60008260000182815481106110c7576110c7611660565b9060005260206000200154905092915050565b600081815260018301602052604081205461112157508154600181810184556000848152602080822090930184905584548482528286019093526040902091909155610eac565b506000610eac565b6000818152600183016020526040812054801561121257600061114d600183611618565b855490915060009061116190600190611618565b90508082146111c657600086600001828154811061118157611181611660565b90600052602060002001549050808760000184815481106111a4576111a4611660565b6000918252602080832090910192909255918252600188019052604090208390555b85548690806111d7576111d7611676565b600190038181906000526020600020016000905590558560010160008681526020019081526020016000206000905560019350505050610eac565b6000915050610eac565b5092915050565b806001600160a01b03163b60000361125957604051634c9c8ce360e01b81526001600160a01b0382166004820152602401610a95565b60008051602061168d83398151915280546001600160a01b0319166001600160a01b0392909216919091179055565b6060600080846001600160a01b0316846040516112a59190611644565b600060405180830381855af49150503d80600081146112e0576040519150601f19603f3d011682016040523d82523d6000602084013e6112e5565b606091505b50915091506112f585838361131d565b95945050505050565b34156105f45760405163b398979f60e01b815260040160405180910390fd5b6060826113325761132d82611372565b610f88565b815115801561134957506001600160a01b0384163b155b1561121c57604051639996b31560e01b81526001600160a01b0385166004820152602401610a95565b8051156113825780518082602001fd5b60405163d6bda27560e01b815260040160405180910390fd5b6001600160a01b0381168114610aa757600080fd5b6000602082840312156113c257600080fd5b8135610f888161139b565b600080600080608085870312156113e357600080fd5b84356113ee8161139b565b93506020850135925060408501359150606085013561140c8161139b565b939692955090935050565b634e487b7160e01b600052604160045260246000fd5b6000806040838503121561144057600080fd5b823561144b8161139b565b9150602083013567ffffffffffffffff8082111561146857600080fd5b818501915085601f83011261147c57600080fd5b81358181111561148e5761148e611417565b604051601f8201601f19908116603f011681019083821181831017156114b6576114b6611417565b816040528281528860208487010111156114cf57600080fd5b8260208601602083013760006020848301015280955050505050509250929050565b6000806040838503121561150457600080fd5b8235915060208301356115168161139b565b809150509250929050565b60005b8381101561153c578181015183820152602001611524565b50506000910152565b6020815260008251806020840152611564816040850160208701611521565b601f01601f19169190910160400192915050565b60006020828403121561158a57600080fd5b8151610f888161139b565b634e487b7160e01b600052601160045260246000fd5b80820180821115610eac57610eac611595565b67ffffffffffffffff82811682821603908082111561121c5761121c611595565b8082028115828204841417610eac57610eac611595565b60008261161357634e487b7160e01b600052601260045260246000fd5b500490565b81810381811115610eac57610eac611595565b60006020828403121561163d57600080fd5b5051919050565b60008251611656818460208701611521565b9190910192915050565b634e487b7160e01b600052603260045260246000fd5b634e487b7160e01b600052603160045260246000fdfe360894a13ba1a3210667c828492db98dca3e2076cc3735a920a3ca505d382bbca26469706673582212204a5946470f2399f6eebbbf8df5c360b0411d6b2a872b74c30d258aaf4c9229e664736f6c63430008160033","opcodes":"PUSH1 0xA0 PUSH1 0x40 MSTORE ADDRESS PUSH1 0x80 MSTORE CALLVALUE DUP1 ISZERO PUSH2 0x14 JUMPI PUSH1 0x0 DUP1 REVERT JUMPDEST POP PUSH32 0xF0C57E16840DF040F15088DC2F81FE391C3923BEC73E23A9662EFC9C229C6A00 DUP1 SLOAD PUSH9 0x10000000000000000 DUP2 DIV PUSH1 0xFF AND ISZERO SWAP1 PUSH1 0x1 PUSH1 0x1 PUSH1 0x40 SHL SUB AND PUSH1 0x0 DUP2 ISZERO DUP1 ISZERO PUSH2 0x5F JUMPI POP DUP3 JUMPDEST SWAP1 POP PUSH1 0x0 DUP3 PUSH1 0x1 PUSH1 0x1 PUSH1 0x40 SHL SUB AND PUSH1 0x1 EQ DUP1 ISZERO PUSH2 0x7B JUMPI POP ADDRESS EXTCODESIZE ISZERO JUMPDEST SWAP1 POP DUP2 ISZERO DUP1 ISZERO PUSH2 0x89 JUMPI POP DUP1 ISZERO JUMPDEST ISZERO PUSH2 0xA7 JUMPI PUSH1 0x40 MLOAD PUSH4 0xF92EE8A9 PUSH1 0xE0 SHL DUP2 MSTORE PUSH1 0x4 ADD PUSH1 0x40 MLOAD DUP1 SWAP2 SUB SWAP1 REVERT JUMPDEST DUP5 SLOAD PUSH1 0x1 PUSH1 0x1 PUSH1 0x40 SHL SUB NOT AND PUSH1 0x1 OR DUP6 SSTORE DUP4 ISZERO PUSH2 0xD5 JUMPI DUP5 SLOAD PUSH1 0xFF PUSH1 0x40 SHL NOT AND PUSH9 0x10000000000000000 OR DUP6 SSTORE JUMPDEST DUP4 ISZERO PUSH2 0x11B JUMPI DUP5 SLOAD PUSH1 0xFF PUSH1 0x40 SHL NOT AND DUP6 SSTORE PUSH1 0x40 MLOAD PUSH1 0x1 DUP2 MSTORE PUSH32 0xC7F505B2F371AE2175EE4913F4499E1F2633A7B5936321EED1CDAEB6115181D2 SWAP1 PUSH1 0x20 ADD PUSH1 0x40 MLOAD DUP1 SWAP2 SUB SWAP1 LOG1 JUMPDEST POP POP POP POP POP PUSH1 0x80 MLOAD PUSH2 0x16E2 PUSH2 0x149 PUSH1 0x0 CODECOPY PUSH1 0x0 DUP2 DUP2 PUSH2 0xB19 ADD MSTORE DUP2 DUP2 PUSH2 0xB42 ADD MSTORE PUSH2 0xC88 ADD MSTORE PUSH2 0x16E2 PUSH1 0x0 RETURN INVALID PUSH1 0x80 PUSH1 0x40 MSTORE PUSH1 0x4 CALLDATASIZE LT PUSH2 0x10D JUMPI PUSH1 0x0 CALLDATALOAD PUSH1 0xE0 SHR DUP1 PUSH4 0x8381E182 GT PUSH2 0x95 JUMPI DUP1 PUSH4 0xB12F7998 GT PUSH2 0x64 JUMPI DUP1 PUSH4 0xB12F7998 EQ PUSH2 0x33C JUMPI DUP1 PUSH4 0xD544F674 EQ PUSH2 0x35C JUMPI DUP1 PUSH4 0xE78CEA92 EQ PUSH2 0x372 JUMPI DUP1 PUSH4 0xF2FDE38B EQ PUSH2 0x392 JUMPI DUP1 PUSH4 0xF82B45BE EQ PUSH2 0x3B2 JUMPI PUSH1 0x0 DUP1 REVERT JUMPDEST DUP1 PUSH4 0x8381E182 EQ PUSH2 0x26D JUMPI DUP1 PUSH4 0x8DA5CB5B EQ PUSH2 0x28D JUMPI DUP1 PUSH4 0xAD3CB1CC EQ PUSH2 0x2DE JUMPI DUP1 PUSH4 0xAF03528B EQ PUSH2 0x31C JUMPI PUSH1 0x0 DUP1 REVERT JUMPDEST DUP1 PUSH4 0x4F1EF286 GT PUSH2 0xDC JUMPI DUP1 PUSH4 0x4F1EF286 EQ PUSH2 0x1F9 JUMPI DUP1 PUSH4 0x52D1902D EQ PUSH2 0x20C JUMPI DUP1 PUSH4 0x715018A6 EQ PUSH2 0x22F JUMPI DUP1 PUSH4 0x7ACB7757 EQ PUSH2 0x244 JUMPI DUP1 PUSH4 0x7B0A47EE EQ PUSH2 0x257 JUMPI PUSH1 0x0 DUP1 REVERT JUMPDEST DUP1 PUSH4 0x7E72F45 EQ PUSH2 0x119 JUMPI DUP1 PUSH4 0x16934FC4 EQ PUSH2 0x153 JUMPI DUP1 PUSH4 0x230CDE7B EQ PUSH2 0x1AF JUMPI DUP1 PUSH4 0x294E8D0E EQ PUSH2 0x1D7 JUMPI PUSH1 0x0 DUP1 REVERT JUMPDEST CALLDATASIZE PUSH2 0x114 JUMPI STOP JUMPDEST PUSH1 0x0 DUP1 REVERT JUMPDEST CALLVALUE DUP1 ISZERO PUSH2 0x125 JUMPI PUSH1 0x0 DUP1 REVERT JUMPDEST POP PUSH2 0x135 PUSH8 0xDE0B6B3A7640000 DUP2 JUMP JUMPDEST PUSH1 0x40 MLOAD PUSH8 0xFFFFFFFFFFFFFFFF SWAP1 SWAP2 AND DUP2 MSTORE PUSH1 0x20 ADD JUMPDEST PUSH1 0x40 MLOAD DUP1 SWAP2 SUB SWAP1 RETURN JUMPDEST CALLVALUE DUP1 ISZERO PUSH2 0x15F JUMPI PUSH1 0x0 DUP1 REVERT JUMPDEST POP PUSH2 0x191 PUSH2 0x16E CALLDATASIZE PUSH1 0x4 PUSH2 0x13B0 JUMP JUMPDEST PUSH1 0x4 PUSH1 0x20 MSTORE PUSH1 0x0 SWAP1 DUP2 MSTORE PUSH1 0x40 SWAP1 KECCAK256 DUP1 SLOAD PUSH1 0x1 SWAP1 SWAP2 ADD SLOAD PUSH8 0xFFFFFFFFFFFFFFFF AND DUP3 JUMP JUMPDEST PUSH1 0x40 DUP1 MLOAD SWAP3 DUP4 MSTORE PUSH8 0xFFFFFFFFFFFFFFFF SWAP1 SWAP2 AND PUSH1 0x20 DUP4 ADD MSTORE ADD PUSH2 0x14A JUMP JUMPDEST CALLVALUE DUP1 ISZERO PUSH2 0x1BB JUMPI PUSH1 0x0 DUP1 REVERT JUMPDEST POP PUSH2 0x1C4 PUSH1 0x0 DUP2 JUMP JUMPDEST PUSH1 0x40 MLOAD PUSH2 0xFFFF SWAP1 SWAP2 AND DUP2 MSTORE PUSH1 0x20 ADD PUSH2 0x14A JUMP JUMPDEST CALLVALUE DUP1 ISZERO PUSH2 0x1E3 JUMPI PUSH1 0x0 DUP1 REVERT JUMPDEST POP PUSH2 0x1F7 PUSH2 0x1F2 CALLDATASIZE PUSH1 0x4 PUSH2 0x13CD JUMP JUMPDEST PUSH2 0x3D2 JUMP JUMPDEST STOP JUMPDEST PUSH2 0x1F7 PUSH2 0x207 CALLDATASIZE PUSH1 0x4 PUSH2 0x142D JUMP JUMPDEST PUSH2 0x5A6 JUMP JUMPDEST CALLVALUE DUP1 ISZERO PUSH2 0x218 JUMPI PUSH1 0x0 DUP1 REVERT JUMPDEST POP PUSH2 0x221 PUSH2 0x5C5 JUMP JUMPDEST PUSH1 0x40 MLOAD SWAP1 DUP2 MSTORE PUSH1 0x20 ADD PUSH2 0x14A JUMP JUMPDEST CALLVALUE DUP1 ISZERO PUSH2 0x23B JUMPI PUSH1 0x0 DUP1 REVERT JUMPDEST POP PUSH2 0x1F7 PUSH2 0x5E2 JUMP JUMPDEST PUSH2 0x1F7 PUSH2 0x252 CALLDATASIZE PUSH1 0x4 PUSH2 0x14F1 JUMP JUMPDEST PUSH2 0x5F6 JUMP JUMPDEST CALLVALUE DUP1 ISZERO PUSH2 0x263 JUMPI PUSH1 0x0 DUP1 REVERT JUMPDEST POP PUSH2 0x221 PUSH1 0x2 SLOAD DUP2 JUMP JUMPDEST CALLVALUE DUP1 ISZERO PUSH2 0x279 JUMPI PUSH1 0x0 DUP1 REVERT JUMPDEST POP PUSH2 0x1F7 PUSH2 0x288 CALLDATASIZE PUSH1 0x4 PUSH2 0x14F1 JUMP JUMPDEST PUSH2 0x6C6 JUMP JUMPDEST CALLVALUE DUP1 ISZERO PUSH2 0x299 JUMPI PUSH1 0x0 DUP1 REVERT JUMPDEST POP PUSH32 0x9016D09D72D40FDAE2FD8CEAC6B6234C7706214FD39C1CD1E609A0528C199300 SLOAD PUSH1 0x1 PUSH1 0x1 PUSH1 0xA0 SHL SUB AND JUMPDEST PUSH1 0x40 MLOAD PUSH1 0x1 PUSH1 0x1 PUSH1 0xA0 SHL SUB SWAP1 SWAP2 AND DUP2 MSTORE PUSH1 0x20 ADD PUSH2 0x14A JUMP JUMPDEST CALLVALUE DUP1 ISZERO PUSH2 0x2EA JUMPI PUSH1 0x0 DUP1 REVERT JUMPDEST POP PUSH2 0x30F PUSH1 0x40 MLOAD DUP1 PUSH1 0x40 ADD PUSH1 0x40 MSTORE DUP1 PUSH1 0x5 DUP2 MSTORE PUSH1 0x20 ADD PUSH5 0x352E302E3 PUSH1 0xDC SHL DUP2 MSTORE POP DUP2 JUMP JUMPDEST PUSH1 0x40 MLOAD PUSH2 0x14A SWAP2 SWAP1 PUSH2 0x1545 JUMP JUMPDEST CALLVALUE DUP1 ISZERO PUSH2 0x328 JUMPI PUSH1 0x0 DUP1 REVERT JUMPDEST POP PUSH1 0x0 SLOAD PUSH2 0x2C6 SWAP1 PUSH1 0x1 PUSH1 0x1 PUSH1 0xA0 SHL SUB AND DUP2 JUMP JUMPDEST CALLVALUE DUP1 ISZERO PUSH2 0x348 JUMPI PUSH1 0x0 DUP1 REVERT JUMPDEST POP PUSH2 0x1F7 PUSH2 0x357 CALLDATASIZE PUSH1 0x4 PUSH2 0x13B0 JUMP JUMPDEST PUSH2 0xA04 JUMP JUMPDEST CALLVALUE DUP1 ISZERO PUSH2 0x368 JUMPI PUSH1 0x0 DUP1 REVERT JUMPDEST POP PUSH2 0x221 PUSH1 0x1 SLOAD DUP2 JUMP JUMPDEST CALLVALUE DUP1 ISZERO PUSH2 0x37E JUMPI PUSH1 0x0 DUP1 REVERT JUMPDEST POP PUSH1 0x3 SLOAD PUSH2 0x2C6 SWAP1 PUSH1 0x1 PUSH1 0x1 PUSH1 0xA0 SHL SUB AND DUP2 JUMP JUMPDEST CALLVALUE DUP1 ISZERO PUSH2 0x39E JUMPI PUSH1 0x0 DUP1 REVERT JUMPDEST POP PUSH2 0x1F7 PUSH2 0x3AD CALLDATASIZE PUSH1 0x4 PUSH2 0x13B0 JUMP JUMPDEST PUSH2 0xA67 JUMP JUMPDEST CALLVALUE DUP1 ISZERO PUSH2 0x3BE JUMPI PUSH1 0x0 DUP1 REVERT JUMPDEST POP PUSH2 0x1F7 PUSH2 0x3CD CALLDATASIZE PUSH1 0x4 PUSH2 0x13B0 JUMP JUMPDEST PUSH2 0xAAA JUMP JUMPDEST PUSH32 0xF0C57E16840DF040F15088DC2F81FE391C3923BEC73E23A9662EFC9C229C6A00 DUP1 SLOAD PUSH1 0x1 PUSH1 0x40 SHL DUP2 DIV PUSH1 0xFF AND ISZERO SWAP1 PUSH8 0xFFFFFFFFFFFFFFFF AND PUSH1 0x0 DUP2 ISZERO DUP1 ISZERO PUSH2 0x418 JUMPI POP DUP3 JUMPDEST SWAP1 POP PUSH1 0x0 DUP3 PUSH8 0xFFFFFFFFFFFFFFFF AND PUSH1 0x1 EQ DUP1 ISZERO PUSH2 0x435 JUMPI POP ADDRESS EXTCODESIZE ISZERO JUMPDEST SWAP1 POP DUP2 ISZERO DUP1 ISZERO PUSH2 0x443 JUMPI POP DUP1 ISZERO JUMPDEST ISZERO PUSH2 0x461 JUMPI PUSH1 0x40 MLOAD PUSH4 0xF92EE8A9 PUSH1 0xE0 SHL DUP2 MSTORE PUSH1 0x4 ADD PUSH1 0x40 MLOAD DUP1 SWAP2 SUB SWAP1 REVERT JUMPDEST DUP5 SLOAD PUSH8 0xFFFFFFFFFFFFFFFF NOT AND PUSH1 0x1 OR DUP6 SSTORE DUP4 ISZERO PUSH2 0x48B JUMPI DUP5 SLOAD PUSH1 0xFF PUSH1 0x40 SHL NOT AND PUSH1 0x1 PUSH1 0x40 SHL OR DUP6 SSTORE JUMPDEST PUSH1 0x3 DUP1 SLOAD PUSH1 0x1 PUSH1 0x1 PUSH1 0xA0 SHL SUB NOT AND PUSH1 0x1 PUSH1 0x1 PUSH1 0xA0 SHL SUB DUP12 AND OR SWAP1 SSTORE PUSH1 0x2 DUP9 SWAP1 SSTORE PUSH2 0x4B3 PUSH2 0xAE5 JUMP JUMPDEST PUSH1 0x1 DUP8 SWAP1 SSTORE PUSH1 0x3 SLOAD PUSH1 0x40 DUP1 MLOAD PUSH4 0x6E9960C3 PUSH1 0xE0 SHL DUP2 MSTORE SWAP1 MLOAD PUSH1 0x0 SWAP3 PUSH1 0x1 PUSH1 0x1 PUSH1 0xA0 SHL SUB AND SWAP2 PUSH4 0x6E9960C3 SWAP2 PUSH1 0x4 DUP1 DUP4 ADD SWAP3 PUSH1 0x20 SWAP3 SWAP2 SWAP1 DUP3 SWAP1 SUB ADD DUP2 DUP7 GAS STATICCALL ISZERO DUP1 ISZERO PUSH2 0x502 JUMPI RETURNDATASIZE PUSH1 0x0 DUP1 RETURNDATACOPY RETURNDATASIZE PUSH1 0x0 REVERT JUMPDEST POP POP POP POP PUSH1 0x40 MLOAD RETURNDATASIZE PUSH1 0x1F NOT PUSH1 0x1F DUP3 ADD AND DUP3 ADD DUP1 PUSH1 0x40 MSTORE POP DUP2 ADD SWAP1 PUSH2 0x526 SWAP2 SWAP1 PUSH2 0x1578 JUMP JUMPDEST SWAP1 POP PUSH2 0x531 DUP2 PUSH2 0xAED JUMP JUMPDEST PUSH1 0x0 DUP1 SLOAD PUSH1 0x1 PUSH1 0x1 PUSH1 0xA0 SHL SUB NOT AND PUSH1 0x1 PUSH1 0x1 PUSH1 0xA0 SHL SUB DUP10 AND OR SWAP1 SSTORE PUSH2 0x554 PUSH2 0xAFE JUMP JUMPDEST POP DUP4 ISZERO PUSH2 0x59B JUMPI DUP5 SLOAD PUSH1 0xFF PUSH1 0x40 SHL NOT AND DUP6 SSTORE PUSH1 0x40 MLOAD PUSH1 0x1 DUP2 MSTORE PUSH32 0xC7F505B2F371AE2175EE4913F4499E1F2633A7B5936321EED1CDAEB6115181D2 SWAP1 PUSH1 0x20 ADD PUSH1 0x40 MLOAD DUP1 SWAP2 SUB SWAP1 LOG1 JUMPDEST POP POP POP POP POP POP POP POP POP JUMP JUMPDEST PUSH2 0x5AE PUSH2 0xB0E JUMP JUMPDEST PUSH2 0x5B7 DUP3 PUSH2 0xBB3 JUMP JUMPDEST PUSH2 0x5C1 DUP3 DUP3 PUSH2 0xBBB JUMP JUMPDEST POP POP JUMP JUMPDEST PUSH1 0x0 PUSH2 0x5CF PUSH2 0xC7D JUMP JUMPDEST POP PUSH1 0x0 DUP1 MLOAD PUSH1 0x20 PUSH2 0x168D DUP4 CODECOPY DUP2 MLOAD SWAP2 MSTORE SWAP1 JUMP JUMPDEST PUSH2 0x5EA PUSH2 0xCC6 JUMP JUMPDEST PUSH2 0x5F4 PUSH1 0x0 PUSH2 0xD21 JUMP JUMPDEST JUMP JUMPDEST PUSH1 0x3 SLOAD PUSH1 0x1 PUSH1 0x1 PUSH1 0xA0 SHL SUB AND CALLER EQ PUSH2 0x621 JUMPI PUSH1 0x40 MLOAD PUSH4 0x7FEA9DC5 PUSH1 0xE0 SHL DUP2 MSTORE PUSH1 0x4 ADD PUSH1 0x40 MLOAD DUP1 SWAP2 SUB SWAP1 REVERT JUMPDEST PUSH1 0x1 PUSH1 0x1 PUSH1 0xA0 SHL SUB DUP2 AND PUSH1 0x0 SWAP1 DUP2 MSTORE PUSH1 0x4 PUSH1 0x20 MSTORE PUSH1 0x40 DUP2 KECCAK256 DUP1 SLOAD DUP5 SWAP3 SWAP1 PUSH2 0x649 SWAP1 DUP5 SWAP1 PUSH2 0x15AB JUMP JUMPDEST SWAP1 SWAP2 SSTORE POP PUSH2 0x658 SWAP1 POP DUP3 PUSH2 0xD92 JUMP JUMPDEST PUSH1 0x1 PUSH1 0x1 PUSH1 0xA0 SHL SUB DUP2 AND PUSH1 0x0 DUP2 DUP2 MSTORE PUSH1 0x4 PUSH1 0x20 SWAP1 DUP2 MSTORE PUSH1 0x40 SWAP2 DUP3 SWAP1 KECCAK256 PUSH1 0x1 ADD DUP1 SLOAD PUSH8 0xFFFFFFFFFFFFFFFF NOT AND NUMBER PUSH8 0xFFFFFFFFFFFFFFFF AND OR SWAP1 SSTORE SWAP1 MLOAD DUP5 DUP2 MSTORE PUSH32 0xB539CA1E5C8D398DDF1C41C30166F33404941683BE4683319B57669A93DAD4EF SWAP2 ADD PUSH1 0x40 MLOAD DUP1 SWAP2 SUB SWAP1 LOG2 POP POP JUMP JUMPDEST PUSH2 0x6CE PUSH2 0xE58 JUMP JUMPDEST PUSH1 0x3 SLOAD PUSH1 0x1 PUSH1 0x1 PUSH1 0xA0 SHL SUB AND CALLER EQ PUSH2 0x6F9 JUMPI PUSH1 0x40 MLOAD PUSH4 0x7FEA9DC5 PUSH1 0xE0 SHL DUP2 MSTORE PUSH1 0x4 ADD PUSH1 0x40 MLOAD DUP1 SWAP2 SUB SWAP1 REVERT JUMPDEST PUSH1 0x1 PUSH1 0x1 PUSH1 0xA0 SHL SUB DUP2 AND PUSH1 0x0 SWAP1 DUP2 MSTORE PUSH1 0x4 PUSH1 0x20 MSTORE PUSH1 0x40 SWAP1 KECCAK256 DUP1 SLOAD DUP4 GT ISZERO PUSH2 0x733 JUMPI PUSH1 0x40 MLOAD PUSH4 0x45A5C399 PUSH1 0xE1 SHL DUP2 MSTORE PUSH1 0x4 ADD PUSH1 0x40 MLOAD DUP1 SWAP2 SUB SWAP1 REVERT JUMPDEST PUSH1 0x1 DUP2 ADD SLOAD PUSH1 0x0 SWAP1 PUSH2 0x74F SWAP1 PUSH8 0xFFFFFFFFFFFFFFFF AND NUMBER PUSH2 0x15BE JUMP JUMPDEST SWAP1 POP PUSH1 0x0 DUP2 PUSH8 0xFFFFFFFFFFFFFFFF AND PUSH1 0x2 SLOAD DUP5 PUSH1 0x0 ADD SLOAD PUSH2 0x770 SWAP2 SWAP1 PUSH2 0x15DF JUMP JUMPDEST PUSH2 0x77A SWAP2 SWAP1 PUSH2 0x15DF JUMP JUMPDEST SWAP1 POP PUSH1 0x0 PUSH2 0x790 PUSH8 0xDE0B6B3A7640000 DUP4 PUSH2 0x15F6 JUMP JUMPDEST SWAP1 POP PUSH1 0x0 DUP7 DUP3 GT PUSH2 0x7A1 JUMPI DUP2 PUSH2 0x7A3 JUMP JUMPDEST DUP7 JUMPDEST SWAP1 POP PUSH1 0x0 PUSH2 0x7B1 DUP3 DUP10 PUSH2 0x15AB JUMP JUMPDEST SWAP1 POP PUSH1 0x0 PUSH2 0x7C0 PUSH1 0x2 DUP5 PUSH2 0x15F6 JUMP JUMPDEST SWAP1 POP PUSH1 0x0 PUSH2 0x7CE DUP3 DUP6 PUSH2 0x1618 JUMP JUMPDEST SWAP1 POP PUSH1 0x0 DUP1 PUSH2 0x7DD PUSH1 0x5 PUSH2 0xEA2 JUMP JUMPDEST GT ISZERO PUSH2 0x7FA JUMPI PUSH2 0x7ED PUSH1 0x5 PUSH2 0xEA2 JUMP JUMPDEST PUSH2 0x7F7 SWAP1 DUP4 PUSH2 0x15F6 JUMP JUMPDEST SWAP1 POP JUMPDEST PUSH1 0x0 PUSH2 0x806 PUSH1 0x5 PUSH2 0xEA2 JUMP JUMPDEST PUSH2 0x810 SWAP1 DUP4 PUSH2 0x15DF JUMP JUMPDEST PUSH2 0x81A SWAP1 DUP8 PUSH2 0x1618 JUMP JUMPDEST PUSH1 0x1 DUP12 ADD DUP1 SLOAD PUSH8 0xFFFFFFFFFFFFFFFF NOT AND NUMBER PUSH8 0xFFFFFFFFFFFFFFFF AND OR SWAP1 SSTORE DUP11 SLOAD SWAP1 SWAP2 POP DUP13 SWAP1 DUP12 SWAP1 PUSH1 0x0 SWAP1 PUSH2 0x850 SWAP1 DUP5 SWAP1 PUSH2 0x1618 JUMP JUMPDEST SWAP1 SWAP2 SSTORE POP PUSH2 0x85F SWAP1 POP DUP6 PUSH2 0xEB2 JUMP JUMPDEST PUSH1 0x0 PUSH1 0x1 PUSH1 0x1 PUSH1 0xA0 SHL SUB DUP13 AND PUSH2 0x875 DUP4 DUP16 PUSH2 0x15AB JUMP JUMPDEST PUSH1 0x40 MLOAD PUSH1 0x0 DUP2 DUP2 DUP2 DUP6 DUP8 GAS CALL SWAP3 POP POP POP RETURNDATASIZE DUP1 PUSH1 0x0 DUP2 EQ PUSH2 0x8B1 JUMPI PUSH1 0x40 MLOAD SWAP2 POP PUSH1 0x1F NOT PUSH1 0x3F RETURNDATASIZE ADD AND DUP3 ADD PUSH1 0x40 MSTORE RETURNDATASIZE DUP3 MSTORE RETURNDATASIZE PUSH1 0x0 PUSH1 0x20 DUP5 ADD RETURNDATACOPY PUSH2 0x8B6 JUMP JUMPDEST PUSH1 0x60 SWAP2 POP JUMPDEST POP POP SWAP1 POP DUP1 PUSH2 0x8D8 JUMPI PUSH1 0x40 MLOAD PUSH4 0x5D7C508F PUSH1 0xE1 SHL DUP2 MSTORE PUSH1 0x4 ADD PUSH1 0x40 MLOAD DUP1 SWAP2 SUB SWAP1 REVERT JUMPDEST PUSH1 0x0 PUSH2 0x8E4 PUSH1 0x5 PUSH2 0xEA2 JUMP JUMPDEST GT ISZERO PUSH2 0x98D JUMPI PUSH1 0x0 JUMPDEST PUSH2 0x8F7 PUSH1 0x5 PUSH2 0xEA2 JUMP JUMPDEST DUP2 LT ISZERO PUSH2 0x98B JUMPI PUSH1 0x0 PUSH2 0x90B PUSH1 0x5 DUP4 PUSH2 0xF7C JUMP JUMPDEST SWAP1 POP PUSH1 0x0 DUP2 PUSH1 0x1 PUSH1 0x1 PUSH1 0xA0 SHL SUB AND DUP7 PUSH1 0x40 MLOAD PUSH1 0x0 PUSH1 0x40 MLOAD DUP1 DUP4 SUB DUP2 DUP6 DUP8 GAS CALL SWAP3 POP POP POP RETURNDATASIZE DUP1 PUSH1 0x0 DUP2 EQ PUSH2 0x95A JUMPI PUSH1 0x40 MLOAD SWAP2 POP PUSH1 0x1F NOT PUSH1 0x3F RETURNDATASIZE ADD AND DUP3 ADD PUSH1 0x40 MSTORE RETURNDATASIZE DUP3 MSTORE RETURNDATASIZE PUSH1 0x0 PUSH1 0x20 DUP5 ADD RETURNDATACOPY PUSH2 0x95F JUMP JUMPDEST PUSH1 0x60 SWAP2 POP JUMPDEST POP POP SWAP1 POP DUP1 PUSH2 0x981 JUMPI PUSH1 0x40 MLOAD PUSH4 0x5D7C508F PUSH1 0xE1 SHL DUP2 MSTORE PUSH1 0x4 ADD PUSH1 0x40 MLOAD DUP1 SWAP2 SUB SWAP1 REVERT JUMPDEST POP POP PUSH1 0x1 ADD PUSH2 0x8ED JUMP JUMPDEST POP JUMPDEST DUP12 PUSH1 0x1 PUSH1 0x1 PUSH1 0xA0 SHL SUB AND PUSH32 0x9845E367B683334E5C0B12D7B81721AC518E649376FA65E3D68324E8F34F2679 DUP15 PUSH1 0x40 MLOAD PUSH2 0x9C8 SWAP2 DUP2 MSTORE PUSH1 0x20 ADD SWAP1 JUMP JUMPDEST PUSH1 0x40 MLOAD DUP1 SWAP2 SUB SWAP1 LOG2 POP POP POP POP POP POP POP POP POP POP POP PUSH2 0x5C1 PUSH1 0x1 PUSH32 0x9B779B17422D0DF92223018B32B4D1FA46E071723D6817E2486D003BECC55F00 SSTORE JUMP JUMPDEST PUSH2 0xA0C PUSH2 0xCC6 JUMP JUMPDEST PUSH1 0x1 PUSH1 0x1 PUSH1 0xA0 SHL SUB DUP2 AND PUSH2 0xA33 JUMPI PUSH1 0x40 MLOAD PUSH4 0xE6C4247B PUSH1 0xE0 SHL DUP2 MSTORE PUSH1 0x4 ADD PUSH1 0x40 MLOAD DUP1 SWAP2 SUB SWAP1 REVERT JUMPDEST PUSH2 0xA3E PUSH1 0x5 DUP3 PUSH2 0xFB5 JUMP JUMPDEST ISZERO PUSH2 0xA5C JUMPI PUSH1 0x40 MLOAD PUSH4 0x2BC30E83 PUSH1 0xE1 SHL DUP2 MSTORE PUSH1 0x4 ADD PUSH1 0x40 MLOAD DUP1 SWAP2 SUB SWAP1 REVERT JUMPDEST PUSH2 0x5C1 PUSH1 0x5 DUP3 PUSH2 0xFD7 JUMP JUMPDEST PUSH2 0xA6F PUSH2 0xCC6 JUMP JUMPDEST PUSH1 0x1 PUSH1 0x1 PUSH1 0xA0 SHL SUB DUP2 AND PUSH2 0xA9E JUMPI PUSH1 0x40 MLOAD PUSH4 0x1E4FBDF7 PUSH1 0xE0 SHL DUP2 MSTORE PUSH1 0x0 PUSH1 0x4 DUP3 ADD MSTORE PUSH1 0x24 ADD JUMPDEST PUSH1 0x40 MLOAD DUP1 SWAP2 SUB SWAP1 REVERT JUMPDEST PUSH2 0xAA7 DUP2 PUSH2 0xD21 JUMP JUMPDEST POP JUMP JUMPDEST PUSH2 0xAB2 PUSH2 0xCC6 JUMP JUMPDEST PUSH2 0xABD PUSH1 0x5 DUP3 PUSH2 0xFB5 JUMP JUMPDEST PUSH2 0xADA JUMPI PUSH1 0x40 MLOAD PUSH4 0x3568A077 PUSH1 0xE1 SHL DUP2 MSTORE PUSH1 0x4 ADD PUSH1 0x40 MLOAD DUP1 SWAP2 SUB SWAP1 REVERT JUMPDEST PUSH2 0x5C1 PUSH1 0x5 DUP3 PUSH2 0xFEC JUMP JUMPDEST PUSH2 0x5F4 PUSH2 0x1001 JUMP JUMPDEST PUSH2 0xAF5 PUSH2 0x1001 JUMP JUMPDEST PUSH2 0xAA7 DUP2 PUSH2 0x104A JUMP JUMPDEST PUSH2 0xB06 PUSH2 0x1001 JUMP JUMPDEST PUSH2 0x5F4 PUSH2 0x1052 JUMP JUMPDEST ADDRESS PUSH1 0x1 PUSH1 0x1 PUSH1 0xA0 SHL SUB PUSH32 0x0 AND EQ DUP1 PUSH2 0xB95 JUMPI POP PUSH32 0x0 PUSH1 0x1 PUSH1 0x1 PUSH1 0xA0 SHL SUB AND PUSH2 0xB89 PUSH1 0x0 DUP1 MLOAD PUSH1 0x20 PUSH2 0x168D DUP4 CODECOPY DUP2 MLOAD SWAP2 MSTORE SLOAD PUSH1 0x1 PUSH1 0x1 PUSH1 0xA0 SHL SUB AND SWAP1 JUMP JUMPDEST PUSH1 0x1 PUSH1 0x1 PUSH1 0xA0 SHL SUB AND EQ ISZERO JUMPDEST ISZERO PUSH2 0x5F4 JUMPI PUSH1 0x40 MLOAD PUSH4 0x703E46DD PUSH1 0xE1 SHL DUP2 MSTORE PUSH1 0x4 ADD PUSH1 0x40 MLOAD DUP1 SWAP2 SUB SWAP1 REVERT JUMPDEST PUSH2 0xAA7 PUSH2 0xCC6 JUMP JUMPDEST DUP2 PUSH1 0x1 PUSH1 0x1 PUSH1 0xA0 SHL SUB AND PUSH4 0x52D1902D PUSH1 0x40 MLOAD DUP2 PUSH4 0xFFFFFFFF AND PUSH1 0xE0 SHL DUP2 MSTORE PUSH1 0x4 ADD PUSH1 0x20 PUSH1 0x40 MLOAD DUP1 DUP4 SUB DUP2 DUP7 GAS STATICCALL SWAP3 POP POP POP DUP1 ISZERO PUSH2 0xC15 JUMPI POP PUSH1 0x40 DUP1 MLOAD PUSH1 0x1F RETURNDATASIZE SWAP1 DUP2 ADD PUSH1 0x1F NOT AND DUP3 ADD SWAP1 SWAP3 MSTORE PUSH2 0xC12 SWAP2 DUP2 ADD SWAP1 PUSH2 0x162B JUMP JUMPDEST PUSH1 0x1 JUMPDEST PUSH2 0xC3D JUMPI PUSH1 0x40 MLOAD PUSH4 0x4C9C8CE3 PUSH1 0xE0 SHL DUP2 MSTORE PUSH1 0x1 PUSH1 0x1 PUSH1 0xA0 SHL SUB DUP4 AND PUSH1 0x4 DUP3 ADD MSTORE PUSH1 0x24 ADD PUSH2 0xA95 JUMP JUMPDEST PUSH1 0x0 DUP1 MLOAD PUSH1 0x20 PUSH2 0x168D DUP4 CODECOPY DUP2 MLOAD SWAP2 MSTORE DUP2 EQ PUSH2 0xC6E JUMPI PUSH1 0x40 MLOAD PUSH4 0x2A875269 PUSH1 0xE2 SHL DUP2 MSTORE PUSH1 0x4 DUP2 ADD DUP3 SWAP1 MSTORE PUSH1 0x24 ADD PUSH2 0xA95 JUMP JUMPDEST PUSH2 0xC78 DUP4 DUP4 PUSH2 0x105A JUMP JUMPDEST POP POP POP JUMP JUMPDEST ADDRESS PUSH1 0x1 PUSH1 0x1 PUSH1 0xA0 SHL SUB PUSH32 0x0 AND EQ PUSH2 0x5F4 JUMPI PUSH1 0x40 MLOAD PUSH4 0x703E46DD PUSH1 0xE1 SHL DUP2 MSTORE PUSH1 0x4 ADD PUSH1 0x40 MLOAD DUP1 SWAP2 SUB SWAP1 REVERT JUMPDEST CALLER PUSH2 0xCF8 PUSH32 0x9016D09D72D40FDAE2FD8CEAC6B6234C7706214FD39C1CD1E609A0528C199300 SLOAD PUSH1 0x1 PUSH1 0x1 PUSH1 0xA0 SHL SUB AND SWAP1 JUMP JUMPDEST PUSH1 0x1 PUSH1 0x1 PUSH1 0xA0 SHL SUB AND EQ PUSH2 0x5F4 JUMPI PUSH1 0x40 MLOAD PUSH4 0x118CDAA7 PUSH1 0xE0 SHL DUP2 MSTORE CALLER PUSH1 0x4 DUP3 ADD MSTORE PUSH1 0x24 ADD PUSH2 0xA95 JUMP JUMPDEST PUSH32 0x9016D09D72D40FDAE2FD8CEAC6B6234C7706214FD39C1CD1E609A0528C199300 DUP1 SLOAD PUSH1 0x1 PUSH1 0x1 PUSH1 0xA0 SHL SUB NOT DUP2 AND PUSH1 0x1 PUSH1 0x1 PUSH1 0xA0 SHL SUB DUP5 DUP2 AND SWAP2 DUP3 OR DUP5 SSTORE PUSH1 0x40 MLOAD SWAP3 AND SWAP2 DUP3 SWAP1 PUSH32 0x8BE0079C531659141344CD1FD0A4F28419497F9722A3DAAFE3B4186F6B6457E0 SWAP1 PUSH1 0x0 SWAP1 LOG3 POP POP POP JUMP JUMPDEST PUSH1 0x0 DUP1 SLOAD PUSH1 0x1 SLOAD PUSH1 0x40 DUP1 MLOAD PUSH1 0x24 DUP2 ADD SWAP3 SWAP1 SWAP3 MSTORE PUSH1 0x44 DUP1 DUP4 ADD DUP6 SWAP1 MSTORE DUP2 MLOAD DUP1 DUP5 SUB SWAP1 SWAP2 ADD DUP2 MSTORE PUSH1 0x64 SWAP1 SWAP3 ADD DUP2 MSTORE PUSH1 0x20 DUP3 ADD DUP1 MLOAD PUSH1 0x1 PUSH1 0x1 PUSH1 0xE0 SHL SUB AND PUSH4 0xB6B11EFD PUSH1 0xE0 SHL OR SWAP1 MSTORE MLOAD PUSH1 0x1 PUSH1 0x1 PUSH1 0xA0 SHL SUB SWAP1 SWAP3 AND SWAP3 SWAP2 DUP4 SWAP2 DUP6 SWAP2 PUSH2 0xDF4 SWAP2 SWAP1 PUSH2 0x1644 JUMP JUMPDEST PUSH1 0x0 PUSH1 0x40 MLOAD DUP1 DUP4 SUB DUP2 DUP6 DUP8 GAS CALL SWAP3 POP POP POP RETURNDATASIZE DUP1 PUSH1 0x0 DUP2 EQ PUSH2 0xE31 JUMPI PUSH1 0x40 MLOAD SWAP2 POP PUSH1 0x1F NOT PUSH1 0x3F RETURNDATASIZE ADD AND DUP3 ADD PUSH1 0x40 MSTORE RETURNDATASIZE DUP3 MSTORE RETURNDATASIZE PUSH1 0x0 PUSH1 0x20 DUP5 ADD RETURNDATACOPY PUSH2 0xE36 JUMP JUMPDEST PUSH1 0x60 SWAP2 POP JUMPDEST POP POP SWAP1 POP DUP1 PUSH2 0xC78 JUMPI PUSH1 0x40 MLOAD PUSH4 0xA4372937 PUSH1 0xE0 SHL DUP2 MSTORE PUSH1 0x4 ADD PUSH1 0x40 MLOAD DUP1 SWAP2 SUB SWAP1 REVERT JUMPDEST PUSH32 0x9B779B17422D0DF92223018B32B4D1FA46E071723D6817E2486D003BECC55F00 DUP1 SLOAD PUSH1 0x1 NOT ADD PUSH2 0xE9C JUMPI PUSH1 0x40 MLOAD PUSH4 0x3EE5AEB5 PUSH1 0xE0 SHL DUP2 MSTORE PUSH1 0x4 ADD PUSH1 0x40 MLOAD DUP1 SWAP2 SUB SWAP1 REVERT JUMPDEST PUSH1 0x2 SWAP1 SSTORE JUMP JUMPDEST PUSH1 0x0 PUSH2 0xEAC DUP3 SLOAD SWAP1 JUMP JUMPDEST SWAP3 SWAP2 POP POP JUMP JUMPDEST PUSH1 0x0 DUP1 SLOAD PUSH1 0x1 SLOAD PUSH1 0x40 DUP1 MLOAD PUSH1 0x24 DUP2 ADD SWAP3 SWAP1 SWAP3 MSTORE PUSH1 0x44 DUP3 ADD DUP6 SWAP1 MSTORE PUSH1 0x64 DUP1 DUP4 ADD DUP6 SWAP1 MSTORE DUP2 MLOAD DUP1 DUP5 SUB SWAP1 SWAP2 ADD DUP2 MSTORE PUSH1 0x84 SWAP1 SWAP3 ADD DUP2 MSTORE PUSH1 0x20 DUP3 ADD DUP1 MLOAD PUSH1 0x1 PUSH1 0x1 PUSH1 0xE0 SHL SUB AND PUSH4 0x636C28B PUSH1 0xE0 SHL OR SWAP1 MSTORE MLOAD PUSH1 0x1 PUSH1 0x1 PUSH1 0xA0 SHL SUB SWAP1 SWAP3 AND SWAP3 SWAP2 DUP4 SWAP2 PUSH2 0xF18 SWAP2 PUSH2 0x1644 JUMP JUMPDEST PUSH1 0x0 PUSH1 0x40 MLOAD DUP1 DUP4 SUB DUP2 PUSH1 0x0 DUP7 GAS CALL SWAP2 POP POP RETURNDATASIZE DUP1 PUSH1 0x0 DUP2 EQ PUSH2 0xF55 JUMPI PUSH1 0x40 MLOAD SWAP2 POP PUSH1 0x1F NOT PUSH1 0x3F RETURNDATASIZE ADD AND DUP3 ADD PUSH1 0x40 MSTORE RETURNDATASIZE DUP3 MSTORE RETURNDATASIZE PUSH1 0x0 PUSH1 0x20 DUP5 ADD RETURNDATACOPY PUSH2 0xF5A JUMP JUMPDEST PUSH1 0x60 SWAP2 POP JUMPDEST POP POP SWAP1 POP DUP1 PUSH2 0xC78 JUMPI PUSH1 0x40 MLOAD PUSH4 0x5D7C508F PUSH1 0xE1 SHL DUP2 MSTORE PUSH1 0x4 ADD PUSH1 0x40 MLOAD DUP1 SWAP2 SUB SWAP1 REVERT JUMPDEST PUSH1 0x0 PUSH2 0xF88 DUP4 DUP4 PUSH2 0x10B0 JUMP JUMPDEST SWAP4 SWAP3 POP POP POP JUMP JUMPDEST PUSH1 0x1 PUSH32 0x9B779B17422D0DF92223018B32B4D1FA46E071723D6817E2486D003BECC55F00 SSTORE JUMP JUMPDEST PUSH1 0x1 PUSH1 0x1 PUSH1 0xA0 SHL SUB DUP2 AND PUSH1 0x0 SWAP1 DUP2 MSTORE PUSH1 0x1 DUP4 ADD PUSH1 0x20 MSTORE PUSH1 0x40 DUP2 KECCAK256 SLOAD ISZERO ISZERO PUSH2 0xF88 JUMP JUMPDEST PUSH1 0x0 PUSH2 0xF88 DUP4 PUSH1 0x1 PUSH1 0x1 PUSH1 0xA0 SHL SUB DUP5 AND PUSH2 0x10DA JUMP JUMPDEST PUSH1 0x0 PUSH2 0xF88 DUP4 PUSH1 0x1 PUSH1 0x1 PUSH1 0xA0 SHL SUB DUP5 AND PUSH2 0x1129 JUMP JUMPDEST PUSH32 0xF0C57E16840DF040F15088DC2F81FE391C3923BEC73E23A9662EFC9C229C6A00 SLOAD PUSH1 0x1 PUSH1 0x40 SHL SWAP1 DIV PUSH1 0xFF AND PUSH2 0x5F4 JUMPI PUSH1 0x40 MLOAD PUSH4 0x1AFCD79F PUSH1 0xE3 SHL DUP2 MSTORE PUSH1 0x4 ADD PUSH1 0x40 MLOAD DUP1 SWAP2 SUB SWAP1 REVERT JUMPDEST PUSH2 0xA6F PUSH2 0x1001 JUMP JUMPDEST PUSH2 0xF8F PUSH2 0x1001 JUMP JUMPDEST PUSH2 0x1063 DUP3 PUSH2 0x1223 JUMP JUMPDEST PUSH1 0x40 MLOAD PUSH1 0x1 PUSH1 0x1 PUSH1 0xA0 SHL SUB DUP4 AND SWAP1 PUSH32 0xBC7CD75A20EE27FD9ADEBAB32041F755214DBC6BFFA90CC0225B39DA2E5C2D3B SWAP1 PUSH1 0x0 SWAP1 LOG2 DUP1 MLOAD ISZERO PUSH2 0x10A8 JUMPI PUSH2 0xC78 DUP3 DUP3 PUSH2 0x1288 JUMP JUMPDEST PUSH2 0x5C1 PUSH2 0x12FE JUMP JUMPDEST PUSH1 0x0 DUP3 PUSH1 0x0 ADD DUP3 DUP2 SLOAD DUP2 LT PUSH2 0x10C7 JUMPI PUSH2 0x10C7 PUSH2 0x1660 JUMP JUMPDEST SWAP1 PUSH1 0x0 MSTORE PUSH1 0x20 PUSH1 0x0 KECCAK256 ADD SLOAD SWAP1 POP SWAP3 SWAP2 POP POP JUMP JUMPDEST PUSH1 0x0 DUP2 DUP2 MSTORE PUSH1 0x1 DUP4 ADD PUSH1 0x20 MSTORE PUSH1 0x40 DUP2 KECCAK256 SLOAD PUSH2 0x1121 JUMPI POP DUP2 SLOAD PUSH1 0x1 DUP2 DUP2 ADD DUP5 SSTORE PUSH1 0x0 DUP5 DUP2 MSTORE PUSH1 0x20 DUP1 DUP3 KECCAK256 SWAP1 SWAP4 ADD DUP5 SWAP1 SSTORE DUP5 SLOAD DUP5 DUP3 MSTORE DUP3 DUP7 ADD SWAP1 SWAP4 MSTORE PUSH1 0x40 SWAP1 KECCAK256 SWAP2 SWAP1 SWAP2 SSTORE PUSH2 0xEAC JUMP JUMPDEST POP PUSH1 0x0 PUSH2 0xEAC JUMP JUMPDEST PUSH1 0x0 DUP2 DUP2 MSTORE PUSH1 0x1 DUP4 ADD PUSH1 0x20 MSTORE PUSH1 0x40 DUP2 KECCAK256 SLOAD DUP1 ISZERO PUSH2 0x1212 JUMPI PUSH1 0x0 PUSH2 0x114D PUSH1 0x1 DUP4 PUSH2 0x1618 JUMP JUMPDEST DUP6 SLOAD SWAP1 SWAP2 POP PUSH1 0x0 SWAP1 PUSH2 0x1161 SWAP1 PUSH1 0x1 SWAP1 PUSH2 0x1618 JUMP JUMPDEST SWAP1 POP DUP1 DUP3 EQ PUSH2 0x11C6 JUMPI PUSH1 0x0 DUP7 PUSH1 0x0 ADD DUP3 DUP2 SLOAD DUP2 LT PUSH2 0x1181 JUMPI PUSH2 0x1181 PUSH2 0x1660 JUMP JUMPDEST SWAP1 PUSH1 0x0 MSTORE PUSH1 0x20 PUSH1 0x0 KECCAK256 ADD SLOAD SWAP1 POP DUP1 DUP8 PUSH1 0x0 ADD DUP5 DUP2 SLOAD DUP2 LT PUSH2 0x11A4 JUMPI PUSH2 0x11A4 PUSH2 0x1660 JUMP JUMPDEST PUSH1 0x0 SWAP2 DUP3 MSTORE PUSH1 0x20 DUP1 DUP4 KECCAK256 SWAP1 SWAP2 ADD SWAP3 SWAP1 SWAP3 SSTORE SWAP2 DUP3 MSTORE PUSH1 0x1 DUP9 ADD SWAP1 MSTORE PUSH1 0x40 SWAP1 KECCAK256 DUP4 SWAP1 SSTORE JUMPDEST DUP6 SLOAD DUP7 SWAP1 DUP1 PUSH2 0x11D7 JUMPI PUSH2 0x11D7 PUSH2 0x1676 JUMP JUMPDEST PUSH1 0x1 SWAP1 SUB DUP2 DUP2 SWAP1 PUSH1 0x0 MSTORE PUSH1 0x20 PUSH1 0x0 KECCAK256 ADD PUSH1 0x0 SWAP1 SSTORE SWAP1 SSTORE DUP6 PUSH1 0x1 ADD PUSH1 0x0 DUP7 DUP2 MSTORE PUSH1 0x20 ADD SWAP1 DUP2 MSTORE PUSH1 0x20 ADD PUSH1 0x0 KECCAK256 PUSH1 0x0 SWAP1 SSTORE PUSH1 0x1 SWAP4 POP POP POP POP PUSH2 0xEAC JUMP JUMPDEST PUSH1 0x0 SWAP2 POP POP PUSH2 0xEAC JUMP JUMPDEST POP SWAP3 SWAP2 POP POP JUMP JUMPDEST DUP1 PUSH1 0x1 PUSH1 0x1 PUSH1 0xA0 SHL SUB AND EXTCODESIZE PUSH1 0x0 SUB PUSH2 0x1259 JUMPI PUSH1 0x40 MLOAD PUSH4 0x4C9C8CE3 PUSH1 0xE0 SHL DUP2 MSTORE PUSH1 0x1 PUSH1 0x1 PUSH1 0xA0 SHL SUB DUP3 AND PUSH1 0x4 DUP3 ADD MSTORE PUSH1 0x24 ADD PUSH2 0xA95 JUMP JUMPDEST PUSH1 0x0 DUP1 MLOAD PUSH1 0x20 PUSH2 0x168D DUP4 CODECOPY DUP2 MLOAD SWAP2 MSTORE DUP1 SLOAD PUSH1 0x1 PUSH1 0x1 PUSH1 0xA0 SHL SUB NOT AND PUSH1 0x1 PUSH1 0x1 PUSH1 0xA0 SHL SUB SWAP3 SWAP1 SWAP3 AND SWAP2 SWAP1 SWAP2 OR SWAP1 SSTORE JUMP JUMPDEST PUSH1 0x60 PUSH1 0x0 DUP1 DUP5 PUSH1 0x1 PUSH1 0x1 PUSH1 0xA0 SHL SUB AND DUP5 PUSH1 0x40 MLOAD PUSH2 0x12A5 SWAP2 SWAP1 PUSH2 0x1644 JUMP JUMPDEST PUSH1 0x0 PUSH1 0x40 MLOAD DUP1 DUP4 SUB DUP2 DUP6 GAS DELEGATECALL SWAP2 POP POP RETURNDATASIZE DUP1 PUSH1 0x0 DUP2 EQ PUSH2 0x12E0 JUMPI PUSH1 0x40 MLOAD SWAP2 POP PUSH1 0x1F NOT PUSH1 0x3F RETURNDATASIZE ADD AND DUP3 ADD PUSH1 0x40 MSTORE RETURNDATASIZE DUP3 MSTORE RETURNDATASIZE PUSH1 0x0 PUSH1 0x20 DUP5 ADD RETURNDATACOPY PUSH2 0x12E5 JUMP JUMPDEST PUSH1 0x60 SWAP2 POP JUMPDEST POP SWAP2 POP SWAP2 POP PUSH2 0x12F5 DUP6 DUP4 DUP4 PUSH2 0x131D JUMP JUMPDEST SWAP6 SWAP5 POP POP POP POP POP JUMP JUMPDEST CALLVALUE ISZERO PUSH2 0x5F4 JUMPI PUSH1 0x40 MLOAD PUSH4 0xB398979F PUSH1 0xE0 SHL DUP2 MSTORE PUSH1 0x4 ADD PUSH1 0x40 MLOAD DUP1 SWAP2 SUB SWAP1 REVERT JUMPDEST PUSH1 0x60 DUP3 PUSH2 0x1332 JUMPI PUSH2 0x132D DUP3 PUSH2 0x1372 JUMP JUMPDEST PUSH2 0xF88 JUMP JUMPDEST DUP2 MLOAD ISZERO DUP1 ISZERO PUSH2 0x1349 JUMPI POP PUSH1 0x1 PUSH1 0x1 PUSH1 0xA0 SHL SUB DUP5 AND EXTCODESIZE ISZERO JUMPDEST ISZERO PUSH2 0x121C JUMPI PUSH1 0x40 MLOAD PUSH4 0x9996B315 PUSH1 0xE0 SHL DUP2 MSTORE PUSH1 0x1 PUSH1 0x1 PUSH1 0xA0 SHL SUB DUP6 AND PUSH1 0x4 DUP3 ADD MSTORE PUSH1 0x24 ADD PUSH2 0xA95 JUMP JUMPDEST DUP1 MLOAD ISZERO PUSH2 0x1382 JUMPI DUP1 MLOAD DUP1 DUP3 PUSH1 0x20 ADD REVERT JUMPDEST PUSH1 0x40 MLOAD PUSH4 0xD6BDA275 PUSH1 0xE0 SHL DUP2 MSTORE PUSH1 0x4 ADD PUSH1 0x40 MLOAD DUP1 SWAP2 SUB SWAP1 REVERT JUMPDEST PUSH1 0x1 PUSH1 0x1 PUSH1 0xA0 SHL SUB DUP2 AND DUP2 EQ PUSH2 0xAA7 JUMPI PUSH1 0x0 DUP1 REVERT JUMPDEST PUSH1 0x0 PUSH1 0x20 DUP3 DUP5 SUB SLT ISZERO PUSH2 0x13C2 JUMPI PUSH1 0x0 DUP1 REVERT JUMPDEST DUP2 CALLDATALOAD PUSH2 0xF88 DUP2 PUSH2 0x139B JUMP JUMPDEST PUSH1 0x0 DUP1 PUSH1 0x0 DUP1 PUSH1 0x80 DUP6 DUP8 SUB SLT ISZERO PUSH2 0x13E3 JUMPI PUSH1 0x0 DUP1 REVERT JUMPDEST DUP5 CALLDATALOAD PUSH2 0x13EE DUP2 PUSH2 0x139B JUMP JUMPDEST SWAP4 POP PUSH1 0x20 DUP6 ADD CALLDATALOAD SWAP3 POP PUSH1 0x40 DUP6 ADD CALLDATALOAD SWAP2 POP PUSH1 0x60 DUP6 ADD CALLDATALOAD PUSH2 0x140C DUP2 PUSH2 0x139B JUMP JUMPDEST SWAP4 SWAP7 SWAP3 SWAP6 POP SWAP1 SWAP4 POP POP JUMP JUMPDEST PUSH4 0x4E487B71 PUSH1 0xE0 SHL PUSH1 0x0 MSTORE PUSH1 0x41 PUSH1 0x4 MSTORE PUSH1 0x24 PUSH1 0x0 REVERT JUMPDEST PUSH1 0x0 DUP1 PUSH1 0x40 DUP4 DUP6 SUB SLT ISZERO PUSH2 0x1440 JUMPI PUSH1 0x0 DUP1 REVERT JUMPDEST DUP3 CALLDATALOAD PUSH2 0x144B DUP2 PUSH2 0x139B JUMP JUMPDEST SWAP2 POP PUSH1 0x20 DUP4 ADD CALLDATALOAD PUSH8 0xFFFFFFFFFFFFFFFF DUP1 DUP3 GT ISZERO PUSH2 0x1468 JUMPI PUSH1 0x0 DUP1 REVERT JUMPDEST DUP2 DUP6 ADD SWAP2 POP DUP6 PUSH1 0x1F DUP4 ADD SLT PUSH2 0x147C JUMPI PUSH1 0x0 DUP1 REVERT JUMPDEST DUP2 CALLDATALOAD DUP2 DUP2 GT ISZERO PUSH2 0x148E JUMPI PUSH2 0x148E PUSH2 0x1417 JUMP JUMPDEST PUSH1 0x40 MLOAD PUSH1 0x1F DUP3 ADD PUSH1 0x1F NOT SWAP1 DUP2 AND PUSH1 0x3F ADD AND DUP2 ADD SWAP1 DUP4 DUP3 GT DUP2 DUP4 LT OR ISZERO PUSH2 0x14B6 JUMPI PUSH2 0x14B6 PUSH2 0x1417 JUMP JUMPDEST DUP2 PUSH1 0x40 MSTORE DUP3 DUP2 MSTORE DUP9 PUSH1 0x20 DUP5 DUP8 ADD ADD GT ISZERO PUSH2 0x14CF JUMPI PUSH1 0x0 DUP1 REVERT JUMPDEST DUP3 PUSH1 0x20 DUP7 ADD PUSH1 0x20 DUP4 ADD CALLDATACOPY PUSH1 0x0 PUSH1 0x20 DUP5 DUP4 ADD ADD MSTORE DUP1 SWAP6 POP POP POP POP POP POP SWAP3 POP SWAP3 SWAP1 POP JUMP JUMPDEST PUSH1 0x0 DUP1 PUSH1 0x40 DUP4 DUP6 SUB SLT ISZERO PUSH2 0x1504 JUMPI PUSH1 0x0 DUP1 REVERT JUMPDEST DUP3 CALLDATALOAD SWAP2 POP PUSH1 0x20 DUP4 ADD CALLDATALOAD PUSH2 0x1516 DUP2 PUSH2 0x139B JUMP JUMPDEST DUP1 SWAP2 POP POP SWAP3 POP SWAP3 SWAP1 POP JUMP JUMPDEST PUSH1 0x0 JUMPDEST DUP4 DUP2 LT ISZERO PUSH2 0x153C JUMPI DUP2 DUP2 ADD MLOAD DUP4 DUP3 ADD MSTORE PUSH1 0x20 ADD PUSH2 0x1524 JUMP JUMPDEST POP POP PUSH1 0x0 SWAP2 ADD MSTORE JUMP JUMPDEST PUSH1 0x20 DUP2 MSTORE PUSH1 0x0 DUP3 MLOAD DUP1 PUSH1 0x20 DUP5 ADD MSTORE PUSH2 0x1564 DUP2 PUSH1 0x40 DUP6 ADD PUSH1 0x20 DUP8 ADD PUSH2 0x1521 JUMP JUMPDEST PUSH1 0x1F ADD PUSH1 0x1F NOT AND SWAP2 SWAP1 SWAP2 ADD PUSH1 0x40 ADD SWAP3 SWAP2 POP POP JUMP JUMPDEST PUSH1 0x0 PUSH1 0x20 DUP3 DUP5 SUB SLT ISZERO PUSH2 0x158A JUMPI PUSH1 0x0 DUP1 REVERT JUMPDEST DUP2 MLOAD PUSH2 0xF88 DUP2 PUSH2 0x139B JUMP JUMPDEST PUSH4 0x4E487B71 PUSH1 0xE0 SHL PUSH1 0x0 MSTORE PUSH1 0x11 PUSH1 0x4 MSTORE PUSH1 0x24 PUSH1 0x0 REVERT JUMPDEST DUP1 DUP3 ADD DUP1 DUP3 GT ISZERO PUSH2 0xEAC JUMPI PUSH2 0xEAC PUSH2 0x1595 JUMP JUMPDEST PUSH8 0xFFFFFFFFFFFFFFFF DUP3 DUP2 AND DUP3 DUP3 AND SUB SWAP1 DUP1 DUP3 GT ISZERO PUSH2 0x121C JUMPI PUSH2 0x121C PUSH2 0x1595 JUMP JUMPDEST DUP1 DUP3 MUL DUP2 ISZERO DUP3 DUP3 DIV DUP5 EQ OR PUSH2 0xEAC JUMPI PUSH2 0xEAC PUSH2 0x1595 JUMP JUMPDEST PUSH1 0x0 DUP3 PUSH2 0x1613 JUMPI PUSH4 0x4E487B71 PUSH1 0xE0 SHL PUSH1 0x0 MSTORE PUSH1 0x12 PUSH1 0x4 MSTORE PUSH1 0x24 PUSH1 0x0 REVERT JUMPDEST POP DIV SWAP1 JUMP JUMPDEST DUP2 DUP2 SUB DUP2 DUP2 GT ISZERO PUSH2 0xEAC JUMPI PUSH2 0xEAC PUSH2 0x1595 JUMP JUMPDEST PUSH1 0x0 PUSH1 0x20 DUP3 DUP5 SUB SLT ISZERO PUSH2 0x163D JUMPI PUSH1 0x0 DUP1 REVERT JUMPDEST POP MLOAD SWAP2 SWAP1 POP JUMP JUMPDEST PUSH1 0x0 DUP3 MLOAD PUSH2 0x1656 DUP2 DUP5 PUSH1 0x20 DUP8 ADD PUSH2 0x1521 JUMP JUMPDEST SWAP2 SWAP1 SWAP2 ADD SWAP3 SWAP2 POP POP JUMP JUMPDEST PUSH4 0x4E487B71 PUSH1 0xE0 SHL PUSH1 0x0 MSTORE PUSH1 0x32 PUSH1 0x4 MSTORE PUSH1 0x24 PUSH1 0x0 REVERT JUMPDEST PUSH4 0x4E487B71 PUSH1 0xE0 SHL PUSH1 0x0 MSTORE PUSH1 0x31 PUSH1 0x4 MSTORE PUSH1 0x24 PUSH1 0x0 REVERT INVALID CALLDATASIZE ADDMOD SWAP5 LOG1 EXTCODESIZE LOG1 LOG3 0x21 MOD PUSH8 0xC828492DB98DCA3E KECCAK256 PUSH23 0xCC3735A920A3CA505D382BBCA26469706673582212204A MSIZE CHAINID SELFBALANCE 0xF 0x23 SWAP10 0xF6 0xEE 0xBB 0xBF DUP14 CREATE2 0xC3 PUSH1 0xB0 COINBASE SAR PUSH12 0x2A872B74C30D258AAF4C9229 0xE6 PUSH5 0x736F6C6343 STOP ADDMOD AND STOP CALLER "},"methodIdentifiers":{"NORMALIZER()":"07e72f45","ROOT_NET_UID()":"230cde7b","UPGRADE_INTERFACE_VERSION()":"ad3cb1cc","addBridgeParticipantReward(address)":"b12f7998","bridge()":"e78cea92","daturaStakingHotkey()":"d544f674","initialize(address,uint256,bytes32,address)":"294e8d0e","owner()":"8da5cb5b","proxiableUUID()":"52d1902d","removeBridgeParticipantReward(address)":"f82b45be","renounceOwnership()":"715018a6","rewardRate()":"7b0a47ee","stake(uint256,address)":"7acb7757","stakePrecompile()":"af03528b","stakes(address)":"16934fc4","transferOwnership(address)":"f2fde38b","unstake(uint256,address)":"8381e182","upgradeToAndCall(address,bytes)":"4f1ef286"}},"storageLayout":{"storage":[{"astId":2453,"contract":"contracts/v1/StakeManager.sol:StakeManager","label":"stakePrecompile","offset":0,"slot":"0","type":"t_address"},{"astId":2458,"contract":"contracts/v1/StakeManager.sol:StakeManager","label":"daturaStakingHotkey","offset":0,"slot":"1","type":"t_bytes32"},{"astId":2460,"contract":"contracts/v1/StakeManager.sol:StakeManager","label":"rewardRate","offset":0,"slot":"2","type":"t_uint256"},{"astId":2463,"contract":"contracts/v1/StakeManager.sol:StakeManager","label":"bridge","offset":0,"slot":"3","type":"t_contract(IBridge)2340"},{"astId":2471,"contract":"contracts/v1/StakeManager.sol:StakeManager","label":"stakes","offset":0,"slot":"4","type":"t_mapping(t_address,t_struct(Stake)2397_storage)"},{"astId":2478,"contract":"contracts/v1/StakeManager.sol:StakeManager","label":"rewardRecipients","offset":0,"slot":"5","type":"t_struct(AddressSet)1871_storage"}],"types":{"t_address":{"encoding":"inplace","label":"address","numberOfBytes":"20"},"t_array(t_bytes32)dyn_storage":{"base":"t_bytes32","encoding":"dynamic_array","label":"bytes32[]","numberOfBytes":"32"},"t_bytes32":{"encoding":"inplace","label":"bytes32","numberOfBytes":"32"},"t_contract(IBridge)2340":{"encoding":"inplace","label":"contract IBridge","numberOfBytes":"20"},"t_mapping(t_address,t_struct(Stake)2397_storage)":{"encoding":"mapping","key":"t_address","label":"mapping(address => struct IStakeManager.Stake)","numberOfBytes":"32","value":"t_struct(Stake)2397_storage"},"t_mapping(t_bytes32,t_uint256)":{"encoding":"mapping","key":"t_bytes32","label":"mapping(bytes32 => uint256)","numberOfBytes":"32","value":"t_uint256"},"t_struct(AddressSet)1871_storage":{"encoding":"inplace","label":"struct EnumerableSet.AddressSet","members":[{"astId":1870,"contract":"contracts/v1/StakeManager.sol:StakeManager","label":"_inner","offset":0,"slot":"0","type":"t_struct(Set)1556_storage"}],"numberOfBytes":"64"},"t_struct(Set)1556_storage":{"encoding":"inplace","label":"struct EnumerableSet.Set","members":[{"astId":1551,"contract":"contracts/v1/StakeManager.sol:StakeManager","label":"_values","offset":0,"slot":"0","type":"t_array(t_bytes32)dyn_storage"},{"astId":1555,"contract":"contracts/v1/StakeManager.sol:StakeManager","label":"_positions","offset":0,"slot":"1","type":"t_mapping(t_bytes32,t_uint256)"}],"numberOfBytes":"64"},"t_struct(Stake)2397_storage":{"encoding":"inplace","label":"struct IStakeManager.Stake","members":[{"astId":2394,"contract":"contracts/v1/StakeManager.sol:StakeManager","label":"amount","offset":0,"slot":"0","type":"t_uint256"},{"astId":2396,"contract":"contracts/v1/StakeManager.sol:StakeManager","label":"lastBlockClaimed","offset":0,"slot":"1","type":"t_uint64"}],"numberOfBytes":"64"},"t_uint256":{"encoding":"inplace","label":"uint256","numberOfBytes":"32"},"t_uint64":{"encoding":"inplace","label":"uint64","numberOfBytes":"8"}}}}}}