{
  "_format": "hh-sol-artifact-1",
  "contractName": "BridgeV2",
  "sourceName": "contracts/v2/BridgeV2.sol",
  "abi": [
    {
      "inputs": [],
      "name": "AccessControlBadConfirmation",
      "type": "error"
    },
    {
      "inputs": [
        {
          "internalType": "address",
          "name": "account",
          "type": "address"
        },
        {
          "internalType": "bytes32",
          "name": "neededRole",
          "type": "bytes32"
        }
      ],
      "name": "AccessControlUnauthorizedAccount",
      "type": "error"
    },
    {
      "inputs": [
        {
          "internalType": "address",
          "name": "target",
          "type": "address"
        }
      ],
      "name": "AddressEmptyCode",
      "type": "error"
    },
    {
      "inputs": [],
      "name": "BridgePaused",
      "type": "error"
    },
    {
      "inputs": [
        {
          "internalType": "address",
          "name": "implementation",
          "type": "address"
        }
      ],
      "name": "ERC1967InvalidImplementation",
      "type": "error"
    },
    {
      "inputs": [],
      "name": "ERC1967NonPayable",
      "type": "error"
    },
    {
      "inputs": [],
      "name": "ETHTransferFailed",
      "type": "error"
    },
    {
      "inputs": [],
      "name": "EnforcedPause",
      "type": "error"
    },
    {
      "inputs": [],
      "name": "ExpectedPause",
      "type": "error"
    },
    {
      "inputs": [],
      "name": "FailedCall",
      "type": "error"
    },
    {
      "inputs": [],
      "name": "InsufficientAllowance",
      "type": "error"
    },
    {
      "inputs": [],
      "name": "InsufficientBalance",
      "type": "error"
    },
    {
      "inputs": [],
      "name": "InsufficientTokensLocked",
      "type": "error"
    },
    {
      "inputs": [],
      "name": "InvalidAdmin",
      "type": "error"
    },
    {
      "inputs": [],
      "name": "InvalidAmount",
      "type": "error"
    },
    {
      "inputs": [],
      "name": "InvalidAuthority",
      "type": "error"
    },
    {
      "inputs": [],
      "name": "InvalidDestinationChain",
      "type": "error"
    },
    {
      "inputs": [],
      "name": "InvalidInitialization",
      "type": "error"
    },
    {
      "inputs": [],
      "name": "InvalidInput",
      "type": "error"
    },
    {
      "inputs": [],
      "name": "InvalidRecipient",
      "type": "error"
    },
    {
      "inputs": [],
      "name": "InvalidSender",
      "type": "error"
    },
    {
      "inputs": [],
      "name": "InvalidSignature",
      "type": "error"
    },
    {
      "inputs": [],
      "name": "InvalidTokenMetadata",
      "type": "error"
    },
    {
      "inputs": [],
      "name": "NotBridgeAuthority",
      "type": "error"
    },
    {
      "inputs": [],
      "name": "NotInitializing",
      "type": "error"
    },
    {
      "inputs": [],
      "name": "ReentrancyGuardReentrantCall",
      "type": "error"
    },
    {
      "inputs": [],
      "name": "StakingManagerNotSet",
      "type": "error"
    },
    {
      "inputs": [],
      "name": "TokenAlreadyWhitelisted",
      "type": "error"
    },
    {
      "inputs": [],
      "name": "TokenNotWhitelisted",
      "type": "error"
    },
    {
      "inputs": [],
      "name": "TransferAlreadyProcessed",
      "type": "error"
    },
    {
      "inputs": [],
      "name": "TransferFailed",
      "type": "error"
    },
    {
      "inputs": [],
      "name": "UUPSUnauthorizedCallContext",
      "type": "error"
    },
    {
      "inputs": [
        {
          "internalType": "bytes32",
          "name": "slot",
          "type": "bytes32"
        }
      ],
      "name": "UUPSUnsupportedProxiableUUID",
      "type": "error"
    },
    {
      "inputs": [],
      "name": "UnauthorizedTransfer",
      "type": "error"
    },
    {
      "anonymous": false,
      "inputs": [
        {
          "indexed": false,
          "internalType": "string",
          "name": "version",
          "type": "string"
        }
      ],
      "name": "Health",
      "type": "event"
    },
    {
      "anonymous": false,
      "inputs": [
        {
          "indexed": false,
          "internalType": "uint64",
          "name": "version",
          "type": "uint64"
        }
      ],
      "name": "Initialized",
      "type": "event"
    },
    {
      "anonymous": false,
      "inputs": [
        {
          "indexed": true,
          "internalType": "bytes32",
          "name": "tokenKey",
          "type": "bytes32"
        },
        {
          "components": [
            {
              "internalType": "address",
              "name": "tokenAddress",
              "type": "address"
            },
            {
              "internalType": "bool",
              "name": "managed",
              "type": "bool"
            },
            {
              "internalType": "bool",
              "name": "enabled",
              "type": "bool"
            },
            {
              "internalType": "bool",
              "name": "supported",
              "type": "bool"
            }
          ],
          "indexed": false,
          "internalType": "struct IBridge.TokenInfo",
          "name": "tokenInfo",
          "type": "tuple"
        },
        {
          "components": [
            {
              "internalType": "string",
              "name": "name",
              "type": "string"
            },
            {
              "internalType": "string",
              "name": "symbol",
              "type": "string"
            },
            {
              "internalType": "uint8",
              "name": "decimals",
              "type": "uint8"
            }
          ],
          "indexed": false,
          "internalType": "struct IBridge.TokenMetadata",
          "name": "tokenMetadata",
          "type": "tuple"
        }
      ],
      "name": "NewTokenWhitelisted",
      "type": "event"
    },
    {
      "anonymous": false,
      "inputs": [
        {
          "indexed": false,
          "internalType": "address",
          "name": "account",
          "type": "address"
        }
      ],
      "name": "Paused",
      "type": "event"
    },
    {
      "anonymous": false,
      "inputs": [
        {
          "indexed": true,
          "internalType": "bytes32",
          "name": "role",
          "type": "bytes32"
        },
        {
          "indexed": true,
          "internalType": "bytes32",
          "name": "previousAdminRole",
          "type": "bytes32"
        },
        {
          "indexed": true,
          "internalType": "bytes32",
          "name": "newAdminRole",
          "type": "bytes32"
        }
      ],
      "name": "RoleAdminChanged",
      "type": "event"
    },
    {
      "anonymous": false,
      "inputs": [
        {
          "indexed": true,
          "internalType": "bytes32",
          "name": "role",
          "type": "bytes32"
        },
        {
          "indexed": true,
          "internalType": "address",
          "name": "account",
          "type": "address"
        },
        {
          "indexed": true,
          "internalType": "address",
          "name": "sender",
          "type": "address"
        }
      ],
      "name": "RoleGranted",
      "type": "event"
    },
    {
      "anonymous": false,
      "inputs": [
        {
          "indexed": true,
          "internalType": "bytes32",
          "name": "role",
          "type": "bytes32"
        },
        {
          "indexed": true,
          "internalType": "address",
          "name": "account",
          "type": "address"
        },
        {
          "indexed": true,
          "internalType": "address",
          "name": "sender",
          "type": "address"
        }
      ],
      "name": "RoleRevoked",
      "type": "event"
    },
    {
      "anonymous": false,
      "inputs": [
        {
          "indexed": true,
          "internalType": "bytes32",
          "name": "tokenKey",
          "type": "bytes32"
        },
        {
          "components": [
            {
              "internalType": "address",
              "name": "tokenAddress",
              "type": "address"
            },
            {
              "internalType": "bool",
              "name": "managed",
              "type": "bool"
            },
            {
              "internalType": "bool",
              "name": "enabled",
              "type": "bool"
            },
            {
              "internalType": "bool",
              "name": "supported",
              "type": "bool"
            }
          ],
          "indexed": false,
          "internalType": "struct IBridge.TokenInfo",
          "name": "tokenInfo",
          "type": "tuple"
        }
      ],
      "name": "TokenWhitelistStatusUpdated",
      "type": "event"
    },
    {
      "anonymous": false,
      "inputs": [
        {
          "indexed": true,
          "internalType": "bytes32",
          "name": "tokenKey",
          "type": "bytes32"
        },
        {
          "indexed": true,
          "internalType": "address",
          "name": "wrappedToken",
          "type": "address"
        },
        {
          "indexed": true,
          "internalType": "bool",
          "name": "isWhitelisted",
          "type": "bool"
        },
        {
          "components": [
            {
              "internalType": "string",
              "name": "name",
              "type": "string"
            },
            {
              "internalType": "string",
              "name": "symbol",
              "type": "string"
            },
            {
              "internalType": "uint8",
              "name": "decimals",
              "type": "uint8"
            }
          ],
          "indexed": false,
          "internalType": "struct IBridge.TokenMetadata",
          "name": "tokenMetadata",
          "type": "tuple"
        }
      ],
      "name": "TokenWrapped",
      "type": "event"
    },
    {
      "anonymous": false,
      "inputs": [
        {
          "indexed": false,
          "internalType": "uint256",
          "name": "nonce",
          "type": "uint256"
        },
        {
          "indexed": false,
          "internalType": "uint64",
          "name": "srcChainId",
          "type": "uint64"
        }
      ],
      "name": "TransferRequestExecuted",
      "type": "event"
    },
    {
      "anonymous": false,
      "inputs": [
        {
          "components": [
            {
              "internalType": "uint256",
              "name": "nonce",
              "type": "uint256"
            },
            {
              "internalType": "address",
              "name": "from",
              "type": "address"
            },
            {
              "internalType": "address",
              "name": "to",
              "type": "address"
            },
            {
              "internalType": "bytes32",
              "name": "tokenKey",
              "type": "bytes32"
            },
            {
              "internalType": "uint256",
              "name": "amount",
              "type": "uint256"
            },
            {
              "internalType": "uint64",
              "name": "srcChainId",
              "type": "uint64"
            },
            {
              "internalType": "uint64",
              "name": "destChainId",
              "type": "uint64"
            }
          ],
          "indexed": false,
          "internalType": "struct IBridge.TransferRequest",
          "name": "request",
          "type": "tuple"
        }
      ],
      "name": "TransferRequested",
      "type": "event"
    },
    {
      "anonymous": false,
      "inputs": [
        {
          "indexed": false,
          "internalType": "address",
          "name": "account",
          "type": "address"
        }
      ],
      "name": "Unpaused",
      "type": "event"
    },
    {
      "anonymous": false,
      "inputs": [
        {
          "indexed": true,
          "internalType": "address",
          "name": "implementation",
          "type": "address"
        }
      ],
      "name": "Upgraded",
      "type": "event"
    },
    {
      "stateMutability": "payable",
      "type": "fallback"
    },
    {
      "inputs": [],
      "name": "AUTHORITY_ROLE",
      "outputs": [
        {
          "internalType": "bytes32",
          "name": "",
          "type": "bytes32"
        }
      ],
      "stateMutability": "view",
      "type": "function"
    },
    {
      "inputs": [],
      "name": "DEFAULT_ADMIN_ROLE",
      "outputs": [
        {
          "internalType": "bytes32",
          "name": "",
          "type": "bytes32"
        }
      ],
      "stateMutability": "view",
      "type": "function"
    },
    {
      "inputs": [],
      "name": "MAX_CONFIRMATION_LENGTH",
      "outputs": [
        {
          "internalType": "uint256",
          "name": "",
          "type": "uint256"
        }
      ],
      "stateMutability": "view",
      "type": "function"
    },
    {
      "inputs": [],
      "name": "PAUSER_ROLE",
      "outputs": [
        {
          "internalType": "bytes32",
          "name": "",
          "type": "bytes32"
        }
      ],
      "stateMutability": "view",
      "type": "function"
    },
    {
      "inputs": [],
      "name": "UPGRADE_INTERFACE_VERSION",
      "outputs": [
        {
          "internalType": "string",
          "name": "",
          "type": "string"
        }
      ],
      "stateMutability": "view",
      "type": "function"
    },
    {
      "inputs": [],
      "name": "bridgeNonce",
      "outputs": [
        {
          "internalType": "uint256",
          "name": "",
          "type": "uint256"
        }
      ],
      "stateMutability": "view",
      "type": "function"
    },
    {
      "inputs": [
        {
          "components": [
            {
              "internalType": "address",
              "name": "to",
              "type": "address"
            },
            {
              "internalType": "uint256",
              "name": "amount",
              "type": "uint256"
            },
            {
              "internalType": "uint256",
              "name": "nonce",
              "type": "uint256"
            },
            {
              "internalType": "bytes32",
              "name": "tokenKey",
              "type": "bytes32"
            },
            {
              "internalType": "uint64",
              "name": "srcChainId",
              "type": "uint64"
            },
            {
              "components": [
                {
                  "internalType": "string",
                  "name": "name",
                  "type": "string"
                },
                {
                  "internalType": "string",
                  "name": "symbol",
                  "type": "string"
                },
                {
                  "internalType": "uint8",
                  "name": "decimals",
                  "type": "uint8"
                }
              ],
              "internalType": "struct IBridge.TokenMetadata",
              "name": "tokenMetadata",
              "type": "tuple"
            }
          ],
          "internalType": "struct IBridge.TransferExecutionDetails[]",
          "name": "batch",
          "type": "tuple[]"
        }
      ],
      "name": "executeTransferRequests",
      "outputs": [],
      "stateMutability": "nonpayable",
      "type": "function"
    },
    {
      "inputs": [],
      "name": "getAdmin",
      "outputs": [
        {
          "internalType": "address",
          "name": "",
          "type": "address"
        }
      ],
      "stateMutability": "view",
      "type": "function"
    },
    {
      "inputs": [],
      "name": "getAuthority",
      "outputs": [
        {
          "internalType": "address",
          "name": "",
          "type": "address"
        }
      ],
      "stateMutability": "view",
      "type": "function"
    },
    {
      "inputs": [
        {
          "internalType": "bytes32",
          "name": "role",
          "type": "bytes32"
        }
      ],
      "name": "getRoleAdmin",
      "outputs": [
        {
          "internalType": "bytes32",
          "name": "",
          "type": "bytes32"
        }
      ],
      "stateMutability": "view",
      "type": "function"
    },
    {
      "inputs": [
        {
          "internalType": "bytes32",
          "name": "role",
          "type": "bytes32"
        },
        {
          "internalType": "address",
          "name": "account",
          "type": "address"
        }
      ],
      "name": "grantRole",
      "outputs": [],
      "stateMutability": "nonpayable",
      "type": "function"
    },
    {
      "inputs": [
        {
          "internalType": "bytes32",
          "name": "role",
          "type": "bytes32"
        },
        {
          "internalType": "address",
          "name": "account",
          "type": "address"
        }
      ],
      "name": "hasRole",
      "outputs": [
        {
          "internalType": "bool",
          "name": "",
          "type": "bool"
        }
      ],
      "stateMutability": "view",
      "type": "function"
    },
    {
      "inputs": [
        {
          "internalType": "address",
          "name": "_authority",
          "type": "address"
        },
        {
          "internalType": "address",
          "name": "_admin",
          "type": "address"
        }
      ],
      "name": "initialize",
      "outputs": [],
      "stateMutability": "nonpayable",
      "type": "function"
    },
    {
      "inputs": [],
      "name": "isPaused",
      "outputs": [
        {
          "internalType": "bool",
          "name": "",
          "type": "bool"
        }
      ],
      "stateMutability": "view",
      "type": "function"
    },
    {
      "inputs": [
        {
          "internalType": "bytes32",
          "name": "",
          "type": "bytes32"
        }
      ],
      "name": "metadataForToken",
      "outputs": [
        {
          "internalType": "string",
          "name": "name",
          "type": "string"
        },
        {
          "internalType": "string",
          "name": "symbol",
          "type": "string"
        },
        {
          "internalType": "uint8",
          "name": "decimals",
          "type": "uint8"
        }
      ],
      "stateMutability": "view",
      "type": "function"
    },
    {
      "inputs": [],
      "name": "pause",
      "outputs": [],
      "stateMutability": "nonpayable",
      "type": "function"
    },
    {
      "inputs": [],
      "name": "paused",
      "outputs": [
        {
          "internalType": "bool",
          "name": "",
          "type": "bool"
        }
      ],
      "stateMutability": "view",
      "type": "function"
    },
    {
      "inputs": [
        {
          "internalType": "uint64",
          "name": "",
          "type": "uint64"
        },
        {
          "internalType": "uint256",
          "name": "",
          "type": "uint256"
        }
      ],
      "name": "processedTransfers",
      "outputs": [
        {
          "internalType": "bool",
          "name": "",
          "type": "bool"
        }
      ],
      "stateMutability": "view",
      "type": "function"
    },
    {
      "inputs": [],
      "name": "proxiableUUID",
      "outputs": [
        {
          "internalType": "bytes32",
          "name": "",
          "type": "bytes32"
        }
      ],
      "stateMutability": "view",
      "type": "function"
    },
    {
      "inputs": [
        {
          "internalType": "bytes32",
          "name": "role",
          "type": "bytes32"
        },
        {
          "internalType": "address",
          "name": "callerConfirmation",
          "type": "address"
        }
      ],
      "name": "renounceRole",
      "outputs": [],
      "stateMutability": "nonpayable",
      "type": "function"
    },
    {
      "inputs": [
        {
          "internalType": "bytes32",
          "name": "tokenKey",
          "type": "bytes32"
        },
        {
          "internalType": "address",
          "name": "to",
          "type": "address"
        },
        {
          "internalType": "uint256",
          "name": "amount",
          "type": "uint256"
        },
        {
          "internalType": "uint64",
          "name": "destChainId",
          "type": "uint64"
        }
      ],
      "name": "requestTransfer",
      "outputs": [],
      "stateMutability": "payable",
      "type": "function"
    },
    {
      "inputs": [
        {
          "internalType": "bytes32",
          "name": "role",
          "type": "bytes32"
        },
        {
          "internalType": "address",
          "name": "account",
          "type": "address"
        }
      ],
      "name": "revokeRole",
      "outputs": [],
      "stateMutability": "nonpayable",
      "type": "function"
    },
    {
      "inputs": [
        {
          "internalType": "address",
          "name": "_authority",
          "type": "address"
        }
      ],
      "name": "setAuthority",
      "outputs": [],
      "stateMutability": "nonpayable",
      "type": "function"
    },
    {
      "inputs": [
        {
          "internalType": "contract IStakeManager",
          "name": "_stakingManager",
          "type": "address"
        }
      ],
      "name": "setStakingManager",
      "outputs": [],
      "stateMutability": "nonpayable",
      "type": "function"
    },
    {
      "inputs": [],
      "name": "stakingManager",
      "outputs": [
        {
          "internalType": "contract IStakeManager",
          "name": "",
          "type": "address"
        }
      ],
      "stateMutability": "view",
      "type": "function"
    },
    {
      "inputs": [
        {
          "internalType": "bytes4",
          "name": "interfaceId",
          "type": "bytes4"
        }
      ],
      "name": "supportsInterface",
      "outputs": [
        {
          "internalType": "bool",
          "name": "",
          "type": "bool"
        }
      ],
      "stateMutability": "view",
      "type": "function"
    },
    {
      "inputs": [],
      "name": "testUpgrade",
      "outputs": [],
      "stateMutability": "nonpayable",
      "type": "function"
    },
    {
      "inputs": [
        {
          "internalType": "bytes32",
          "name": "",
          "type": "bytes32"
        }
      ],
      "name": "tokensInfo",
      "outputs": [
        {
          "internalType": "address",
          "name": "tokenAddress",
          "type": "address"
        },
        {
          "internalType": "bool",
          "name": "managed",
          "type": "bool"
        },
        {
          "internalType": "bool",
          "name": "enabled",
          "type": "bool"
        },
        {
          "internalType": "bool",
          "name": "supported",
          "type": "bool"
        }
      ],
      "stateMutability": "view",
      "type": "function"
    },
    {
      "inputs": [
        {
          "internalType": "uint256",
          "name": "",
          "type": "uint256"
        }
      ],
      "name": "transferRequests",
      "outputs": [
        {
          "internalType": "uint256",
          "name": "nonce",
          "type": "uint256"
        },
        {
          "internalType": "address",
          "name": "from",
          "type": "address"
        },
        {
          "internalType": "address",
          "name": "to",
          "type": "address"
        },
        {
          "internalType": "bytes32",
          "name": "tokenKey",
          "type": "bytes32"
        },
        {
          "internalType": "uint256",
          "name": "amount",
          "type": "uint256"
        },
        {
          "internalType": "uint64",
          "name": "srcChainId",
          "type": "uint64"
        },
        {
          "internalType": "uint64",
          "name": "destChainId",
          "type": "uint64"
        }
      ],
      "stateMutability": "view",
      "type": "function"
    },
    {
      "inputs": [],
      "name": "unpause",
      "outputs": [],
      "stateMutability": "nonpayable",
      "type": "function"
    },
    {
      "inputs": [
        {
          "internalType": "bytes32",
          "name": "tokenKey",
          "type": "bytes32"
        },
        {
          "internalType": "bool",
          "name": "enabled",
          "type": "bool"
        },
        {
          "internalType": "address",
          "name": "tokenAddress",
          "type": "address"
        }
      ],
      "name": "updateWhitelistStatus",
      "outputs": [],
      "stateMutability": "nonpayable",
      "type": "function"
    },
    {
      "inputs": [
        {
          "internalType": "address",
          "name": "_asset",
          "type": "address"
        },
        {
          "internalType": "address",
          "name": "_authority",
          "type": "address"
        },
        {
          "internalType": "uint64",
          "name": "_chainId",
          "type": "uint64"
        },
        {
          "internalType": "address",
          "name": "_admin",
          "type": "address"
        }
      ],
      "name": "upgradeInitialize",
      "outputs": [],
      "stateMutability": "nonpayable",
      "type": "function"
    },
    {
      "inputs": [
        {
          "internalType": "address",
          "name": "newImplementation",
          "type": "address"
        },
        {
          "internalType": "bytes",
          "name": "data",
          "type": "bytes"
        }
      ],
      "name": "upgradeToAndCall",
      "outputs": [],
      "stateMutability": "payable",
      "type": "function"
    },
    {
      "inputs": [
        {
          "internalType": "bytes32",
          "name": "tokenKey",
          "type": "bytes32"
        },
        {
          "internalType": "bool",
          "name": "enabled",
          "type": "bool"
        },
        {
          "internalType": "address",
          "name": "tokenAddress",
          "type": "address"
        },
        {
          "internalType": "string",
          "name": "tokenSymbol",
          "type": "string"
        },
        {
          "internalType": "string",
          "name": "tokenName",
          "type": "string"
        },
        {
          "internalType": "uint8",
          "name": "tokenDecimals",
          "type": "uint8"
        }
      ],
      "name": "whitelistToken",
      "outputs": [],
      "stateMutability": "nonpayable",
      "type": "function"
    },
    {
      "stateMutability": "payable",
      "type": "receive"
    }
  ],
  "bytecode": "0x60a06040523060805234801561001457600080fd5b50608051613fe561003e600039600081816119300152818161195a0152611ab10152613fe56000f3fe6080604052600436106200020f5760003560e01c8063640c89ee11620001175780639d6aed0b11620000a7578063b187bd261162000075578063b187bd261462000700578063d547741f1462000723578063e2b178a01462000748578063e63ab1e91462000768578063f0170150146200078d57005b80639d6aed0b146200066a578063a217fddf1462000682578063ad3cb1cc1462000699578063b00bba6a14620006db57005b80637a9e5e4b11620000e55780637a9e5e4b14620005e35780638034776e14620006085780638456cb59146200062d57806391d14854146200064557005b8063640c89ee14620005515780636c0652fb14620005765780636e9960c3146200058d578063770eef9e14620005ad57005b80633cdf146e116200019f5780634a3fba0e116200016d5780634a3fba0e14620004855780634f1ef28614620004bb57806352d1902d14620004d25780635c975abb14620004ea5780635e33e5fd146200051257005b80633cdf146e146200040c5780633f4ba83a146200043157806346a0dd5c1462000449578063485cc955146200046057005b8063248a9ca311620001dd578063248a9ca314620003785780632f2ff15d146200039d5780633227247a14620003c257806336568abe14620003e757005b806301ffc9a7146200021957806303486c4014620002535780631f87a250146200031657806322828cc2146200033d57005b366200021757005b005b3480156200022657600080fd5b506200023e62000238366004620023db565b6200081b565b60405190151581526020015b60405180910390f35b3480156200026057600080fd5b50620002c86200027236600462002407565b600560208190526000918252604090912080546001820154600283015460038401546004850154949095015492946001600160a01b039283169491909216926001600160401b0380821691600160401b90041687565b604080519788526001600160a01b0396871660208901529590941694860194909452606085019190915260808401526001600160401b0391821660a08401521660c082015260e0016200024a565b3480156200032357600080fd5b506200032e60005481565b6040519081526020016200024a565b3480156200034a57600080fd5b506003546200035f906001600160a01b031681565b6040516001600160a01b0390911681526020016200024a565b3480156200038557600080fd5b506200032e6200039736600462002407565b62000853565b348015620003aa57600080fd5b5062000217620003bc36600462002437565b62000876565b348015620003cf57600080fd5b5062000217620003e13660046200253e565b6200089e565b348015620003f457600080fd5b50620002176200040636600462002437565b62000a10565b3480156200041957600080fd5b50620002176200042b366004620025f0565b62000a4b565b3480156200043e57600080fd5b506200021762000afb565b3480156200045657600080fd5b506200032e606481565b3480156200046d57600080fd5b50620002176200047f36600462002637565b62000b23565b3480156200049257600080fd5b506200032e7fd565e3fc066df348a5cbc05a8d6323e00552838041cea2d84cc59876ba37735d81565b62000217620004cc3660046200266a565b62000d2e565b348015620004df57600080fd5b506200032e62000d53565b348015620004f757600080fd5b5060008051602062003f708339815191525460ff166200023e565b3480156200051f57600080fd5b506200023e62000531366004620026f1565b600460209081526000928352604080842090915290825290205460ff1681565b3480156200055e57600080fd5b5062000217620005703660046200271e565b62000d73565b620002176200058736600462002797565b62000eec565b3480156200059a57600080fd5b506002546001600160a01b03166200035f565b348015620005ba57600080fd5b50620005d2620005cc36600462002407565b62001413565b6040516200024a9392919062002838565b348015620005f057600080fd5b50620002176200060236600462002875565b62001558565b3480156200061557600080fd5b50620002176200062736600462002895565b62001588565b3480156200063a57600080fd5b506200021762001656565b3480156200065257600080fd5b506200023e6200066436600462002437565b6200167b565b3480156200067757600080fd5b5062000217620016b4565b3480156200068f57600080fd5b506200032e600081565b348015620006a657600080fd5b50620006cc604051806040016040528060058152602001640352e302e360dc1b81525081565b6040516200024a9190620028f8565b348015620006e857600080fd5b5062000217620006fa36600462002875565b62001703565b3480156200070d57600080fd5b506002546200023e90600160a01b900460ff1681565b3480156200073057600080fd5b50620002176200074236600462002437565b62001733565b3480156200075557600080fd5b506001546001600160a01b03166200035f565b3480156200077557600080fd5b506200032e60008051602062003f3083398151915281565b3480156200079a57600080fd5b50620007e8620007ac36600462002407565b6006602052600090815260409020546001600160a01b0381169060ff600160a01b8204811691600160a81b8104821691600160b01b9091041684565b604080516001600160a01b039095168552921515602085015290151591830191909152151560608201526080016200024a565b60006001600160e01b03198216637965db0b60e01b14806200084d57506301ffc9a760e01b6001600160e01b03198316145b92915050565b600090815260008051602062003f50833981519152602052604090206001015490565b620008818262000853565b6200088c8162001755565b62000898838362001761565b50505050565b6000620008ab8162001755565b605084511180620008bd575060508351115b15620008dc57604051633e16261960e11b815260040160405180910390fd5b60008781526006602052604090208054600160b01b900460ff16156200091557604051634424109160e01b815260040160405180910390fd5b8054600160b01b6001600160a01b038816600162ff000160a01b031990921691909117811761ffff60a81b191660ff60b01b19600160a81b8a151502161717815560408051606081018252858152602080820188905260ff86168284015260008b815260079091529190912081518291908190620009949082620029b2565b5060208201516001820190620009ab9082620029b2565b50604091820151600291909101805460ff191660ff9092169190911790555189907f80150666a36e18684118023c777f2647e6b371e01dc410a29550745a709117c690620009fd908590859062002a7a565b60405180910390a2505050505050505050565b6001600160a01b038116331462000a3a5760405163334bd91960e11b815260040160405180910390fd5b62000a4682826200180d565b505050565b600062000a588162001755565b60008481526006602090815260408083208151608080820184529154600160a81b900460ff1615158184019081526001600160a01b03881680835282860196875289151560608085019182528651928352975115159682019690965290511515818501529351151594840194909452905187927fa158d459581858b2eda49d61c909897cae2b98e26fb0bacc1f6f89d42a372b1692908290030190a25050505050565b60008051602062003f3083398151915262000b168162001755565b62000b206200188e565b50565b7ff0c57e16840df040f15088dc2f81fe391c3923bec73e23a9662efc9c229c6a008054600160401b810460ff1615906001600160401b031660008115801562000b695750825b90506000826001600160401b0316600114801562000b865750303b155b90508115801562000b95575080155b1562000bb45760405163f92ee8a960e01b815260040160405180910390fd5b845467ffffffffffffffff19166001178555831562000bdf57845460ff60401b1916600160401b1785555b6001600160a01b03861662000c0757604051630b5eba9f60e41b815260040160405180910390fd5b6001600160a01b03871662000c2f57604051636f6a1b8760e11b815260040160405180910390fd5b600180546001600160a01b03808a166001600160a01b031992831617909255600280549289169290911691909117905562000c69620018f1565b62000c73620018f1565b62000c7d620018fd565b62000c8a60008762001761565b5062000ca660008051602062003f308339815191528762001761565b5062000cd37fd565e3fc066df348a5cbc05a8d6323e00552838041cea2d84cc59876ba37735d8862001761565b5062000cde62001911565b831562000d2557845460ff60401b19168555604051600181527fc7f505b2f371ae2175ee4913f4499e1f2633a7b5936321eed1cdaeb6115181d29060200160405180910390a15b50505050505050565b62000d3862001925565b62000d4382620019ce565b62000d4f8282620019db565b5050565b600062000d5f62001aa6565b5060008051602062003f1083398151915290565b7fd565e3fc066df348a5cbc05a8d6323e00552838041cea2d84cc59876ba37735d62000d9f8162001755565b62000da962001af0565b62000db362001b23565b81158062000dc15750606482115b1562000de05760405163b4fa3fb360e01b815260040160405180910390fd5b60005b8281101562000ed25762000e1f84848381811062000e055762000e0562002b0e565b905060200281019062000e19919062002b24565b62001b5d565b7fcbc66fcdc0aaadd449255e15a56335fbcc6fcdcf3987c59bf5591c1636d84ce284848381811062000e555762000e5562002b0e565b905060200281019062000e69919062002b24565b6040013585858481811062000e825762000e8262002b0e565b905060200281019062000e96919062002b24565b62000ea99060a081019060800162002b45565b604080519283526001600160401b0390911660208301520160405180910390a160010162000de3565b5062000a46600160008051602062003f9083398151915255565b62000ef662001af0565b62000f0062001b23565b46816001600160401b03160362000f2a5760405163b86ac1ef60e01b815260040160405180910390fd5b6001600160a01b03831662000f5257604051634e46966960e11b815260040160405180910390fd5b8160000362000f745760405163162908e360e11b815260040160405180910390fd5b3362000f9357604051636edaef2f60e11b815260040160405180910390fd5b600084815260066020908152604091829020825160808101845290546001600160a01b038116825260ff600160a01b82048116151593830193909352600160a81b81048316151593820193909352600160b01b9092041615156060820181905262001011576040516307c241ad60e51b815260040160405180910390fd5b80602001511580156200102c575080516001600160a01b0316155b156200105a57823410156200105457604051631e9acf1760e31b815260040160405180910390fd5b620010f8565b8060200151620010f8578051604051636eb1769f60e11b815233600482015230602482015284916001600160a01b03169063dd62ed3e90604401602060405180830381865afa158015620010b2573d6000803e3d6000fd5b505050506040513d601f19601f82011682018060405250810190620010d8919062002b63565b1015620010f8576040516313be252b60e01b815260040160405180910390fd5b6040805160e081018252600080548083523360208085019182526001600160a01b038a8116868801908152606087018d8152608088018c81526001600160401b034681811660a08c019081528e831660c08d01908152998b526005978890529b8a208b51815597516001890180549188166001600160a01b031992831617905594516002890180549190971695169490941790945590516003860155516004850155965192909101805493518216600160401b026fffffffffffffffffffffffffffffffff19909416929091169190911791909117905580549080620011de8362002b7d565b91905055508260200151156200125957825160405163079cc67960e41b8152336004820152602481018790526001600160a01b03909116906379cc679090604401600060405180830381600087803b1580156200123a57600080fd5b505af11580156200124f573d6000803e3d6000fd5b5050505062001369565b82516001600160a01b0316620012ea576003546001600160a01b031615620012e457600354604051637acb775760e01b8152600481018790523360248201526001600160a01b0390911690637acb77579087906044016000604051808303818588803b158015620012c957600080fd5b505af1158015620012de573d6000803e3d6000fd5b50505050505b62001369565b82516040516323b872dd60e01b8152336004820152306024820152604481018790526001600160a01b03909116906323b872dd906064016020604051808303816000875af115801562001341573d6000803e3d6000fd5b505050506040513d601f19601f8201168201806040525081019062001367919062002ba5565b505b60408051825181526020808401516001600160a01b0390811691830191909152838301511681830152606080840151908201526080808401519082015260a0808401516001600160401b039081169183019190915260c0808501519091169082015290517f3f9b5dddbaec56df245d81eed98595f8f27d3dca9554dfd6f8fe646aeb76bac69181900360e00190a150505062000898600160008051602062003f9083398151915255565b60076020526000908152604090208054819062001430906200290d565b80601f01602080910402602001604051908101604052809291908181526020018280546200145e906200290d565b8015620014af5780601f106200148357610100808354040283529160200191620014af565b820191906000526020600020905b8154815290600101906020018083116200149157829003601f168201915b505050505090806001018054620014c6906200290d565b80601f0160208091040260200160405190810160405280929190818152602001828054620014f4906200290d565b8015620015455780601f10620015195761010080835404028352916020019162001545565b820191906000526020600020905b8154815290600101906020018083116200152757829003601f168201915b5050506002909301549192505060ff1683565b6000620015658162001755565b50600180546001600160a01b0319166001600160a01b0392909216919091179055565b7ff0c57e16840df040f15088dc2f81fe391c3923bec73e23a9662efc9c229c6a00805460029190600160401b900460ff1680620015d2575080546001600160401b03808416911610155b15620015f15760405163f92ee8a960e01b815260040160405180910390fd5b805468ffffffffffffffffff19166001600160401b038316908117600160401b1760ff60401b191682556040519081527fc7f505b2f371ae2175ee4913f4499e1f2633a7b5936321eed1cdaeb6115181d29060200160405180910390a1505050505050565b60008051602062003f30833981519152620016718162001755565b62000b20620020a8565b600091825260008051602062003f50833981519152602090815260408084206001600160a01b0393909316845291905290205460ff1690565b7fd6825e90396cf1a10e4651f7f191ad4c9e3538ffcb71793b7f4fe0b0fac09230604051620016f9906020808252600290820152613b1960f11b604082015260600190565b60405180910390a1565b6000620017108162001755565b50600380546001600160a01b0319166001600160a01b0392909216919091179055565b6200173e8262000853565b620017498162001755565b6200089883836200180d565b62000b208133620020f5565b600060008051602062003f508339815191526200177f84846200167b565b62001802576000848152602082815260408083206001600160a01b03871684529091529020805460ff19166001179055620017b73390565b6001600160a01b0316836001600160a01b0316857f2f8788117e7eff1d82e926ec794901d17c78024a50270940304540a733656f0d60405160405180910390a460019150506200084d565b60009150506200084d565b600060008051602062003f508339815191526200182b84846200167b565b1562001802576000848152602082815260408083206001600160a01b0387168085529252808320805460ff1916905551339287917ff6391f5c32d9c69d2a47ea670b442974b53935d1edc7fd64eb21e047a839171b9190a460019150506200084d565b6200189862002132565b60008051602062003f70833981519152805460ff191681557f5db9ee0a495bf2e6ff9c91a7834c1ba4fdd244a5e8aa4e537bd38aeae4b073aa335b6040516001600160a01b03909116815260200160405180910390a150565b620018fb62002164565b565b6200190762002164565b620018fb620021ae565b6200191b62002164565b620018fb620021d2565b306001600160a01b037f0000000000000000000000000000000000000000000000000000000000000000161480620019af57507f00000000000000000000000000000000000000000000000000000000000000006001600160a01b0316620019a360008051602062003f10833981519152546001600160a01b031690565b6001600160a01b031614155b15620018fb5760405163703e46dd60e11b815260040160405180910390fd5b600062000d4f8162001755565b816001600160a01b03166352d1902d6040518163ffffffff1660e01b8152600401602060405180830381865afa92505050801562001a38575060408051601f3d908101601f1916820190925262001a359181019062002b63565b60015b62001a6657604051634c9c8ce360e01b81526001600160a01b03831660048201526024015b60405180910390fd5b60008051602062003f10833981519152811462001a9a57604051632a87526960e21b81526004810182905260240162001a5d565b62000a468383620021dc565b306001600160a01b037f00000000000000000000000000000000000000000000000000000000000000001614620018fb5760405163703e46dd60e11b815260040160405180910390fd5b60008051602062003f708339815191525460ff1615620018fb5760405163d93c066560e01b815260040160405180910390fd5b60008051602062003f9083398151915280546001190162001b5757604051633ee5aeb560e01b815260040160405180910390fd5b60029055565b6004600062001b7360a084016080850162002b45565b6001600160401b031681526020808201929092526040908101600090812084830135825290925290205460ff161562001bbf5760405163247ff34560e01b815260040160405180910390fd5b606080820135600090815260066020908152604080832081516080808201845291546001600160a01b038116825260ff600160a01b82048116151583870152600160a81b82048116151583860152600160b01b90910416151581870152825191820183528482529281018490529081018390529283018290529160016004600062001c5160a088016080890162002b45565b6001600160401b03168152602080820192909252604090810160009081208883013582529092529020805460ff1916911515919091179055606083015162001e2f5762001ca260a085018562002bc5565b62001cae908062002bdc565b62001cbd60a087018762002bc5565b62001ccd90602081019062002bdc565b3060405162001cdc90620023cd565b62001cec95949392919062002c55565b604051809103906000f08015801562001d09573d6000803e3d6000fd5b50604080516080810182526001600160a01b0380841682526001602080840182815284860183815260608087019485528c01356000908152600690935295909120845181549251965193511515600160b01b0260ff60b01b19941515600160a81b029490941661ffff60a81b19971515600160a01b026001600160a81b0319909416919095161791909117949094169190911717909155909250905062001db460a085018562002bc5565b6060850135600090815260076020526040902062001dd3828262002d72565b50600190506001600160a01b03831660608601357f8350ea9d2ac1a64b7990b6abfefffa3e2fc4e00730d262032f8c555eb56da06662001e1760a089018962002bc5565b60405162001e26919062002ed4565b60405180910390a45b826060015162001ec3576001600160a01b0382166340c10f1962001e57602087018762002875565b6040516001600160e01b031960e084901b1681526001600160a01b039091166004820152602087013560248201526044015b600060405180830381600087803b15801562001ea457600080fd5b505af115801562001eb9573d6000803e3d6000fd5b5050505062000898565b82602001511562001eed5782516001600160a01b03166340c10f1962001e57602087018762002875565b82516001600160a01b031662001ff6576003546001600160a01b03161562001f66576003546001600160a01b0316638381e1826020860180359062001f33908862002875565b6040516001600160e01b031960e085901b16815260048101929092526001600160a01b0316602482015260440162001e89565b600062001f77602086018662002875565b6001600160a01b0316856020013560405160006040518083038185875af1925050503d806000811462001fc7576040519150601f19603f3d011682016040523d82523d6000602084013e62001fcc565b606091505b505090508062001fef576040516312171d8360e31b815260040160405180910390fd5b5062000898565b82516001600160a01b031663a9059cbb62002015602087018762002875565b6040516001600160e01b031960e084901b1681526001600160a01b039091166004820152602087013560248201526044016020604051808303816000875af115801562002066573d6000803e3d6000fd5b505050506040513d601f19601f820116820180604052508101906200208c919062002ba5565b5050505050565b600160008051602062003f9083398151915255565b620020b262001af0565b60008051602062003f70833981519152805460ff191660011781557f62e78cea01bee320cd4e420270b5ea74000d11b0c9f74754ebdbfc544b05a25833620018d3565b6200210182826200167b565b62000d4f5760405163e2517d3f60e01b81526001600160a01b03821660048201526024810183905260440162001a5d565b60008051602062003f708339815191525460ff16620018fb57604051638dfc202b60e01b815260040160405180910390fd5b7ff0c57e16840df040f15088dc2f81fe391c3923bec73e23a9662efc9c229c6a0054600160401b900460ff16620018fb57604051631afcd79f60e31b815260040160405180910390fd5b620021b862002164565b60008051602062003f70833981519152805460ff19169055565b6200209362002164565b620021e78262002239565b6040516001600160a01b038316907fbc7cd75a20ee27fd9adebab32041f755214dbc6bffa90cc0225b39da2e5c2d3b90600090a28051156200222f5762000a468282620022a1565b62000d4f6200231d565b806001600160a01b03163b6000036200227157604051634c9c8ce360e01b81526001600160a01b038216600482015260240162001a5d565b60008051602062003f1083398151915280546001600160a01b0319166001600160a01b0392909216919091179055565b6060600080846001600160a01b031684604051620022c0919062002f4f565b600060405180830381855af49150503d8060008114620022fd576040519150601f19603f3d011682016040523d82523d6000602084013e62002302565b606091505b5091509150620023148583836200233d565b95945050505050565b3415620018fb5760405163b398979f60e01b815260040160405180910390fd5b60608262002356576200235082620023a3565b6200239c565b81511580156200236e57506001600160a01b0384163b155b156200239957604051639996b31560e01b81526001600160a01b038516600482015260240162001a5d565b50805b9392505050565b805115620023b45780518082602001fd5b60405163d6bda27560e01b815260040160405180910390fd5b610fac8062002f6483390190565b600060208284031215620023ee57600080fd5b81356001600160e01b0319811681146200239c57600080fd5b6000602082840312156200241a57600080fd5b5035919050565b6001600160a01b038116811462000b2057600080fd5b600080604083850312156200244b57600080fd5b8235915060208301356200245f8162002421565b809150509250929050565b801515811462000b2057600080fd5b634e487b7160e01b600052604160045260246000fd5b60006001600160401b0380841115620024ac57620024ac62002479565b604051601f8501601f19908116603f01168101908282118183101715620024d757620024d762002479565b81604052809350858152868686011115620024f157600080fd5b858560208301376000602087830101525050509392505050565b600082601f8301126200251d57600080fd5b6200239c838335602085016200248f565b60ff8116811462000b2057600080fd5b60008060008060008060c087890312156200255857600080fd5b8635955060208701356200256c816200246a565b945060408701356200257e8162002421565b935060608701356001600160401b03808211156200259b57600080fd5b620025a98a838b016200250b565b94506080890135915080821115620025c057600080fd5b50620025cf89828a016200250b565b92505060a0870135620025e2816200252e565b809150509295509295509295565b6000806000606084860312156200260657600080fd5b8335925060208401356200261a816200246a565b915060408401356200262c8162002421565b809150509250925092565b600080604083850312156200264b57600080fd5b8235620026588162002421565b915060208301356200245f8162002421565b600080604083850312156200267e57600080fd5b82356200268b8162002421565b915060208301356001600160401b03811115620026a757600080fd5b8301601f81018513620026b957600080fd5b620026ca858235602084016200248f565b9150509250929050565b80356001600160401b0381168114620026ec57600080fd5b919050565b600080604083850312156200270557600080fd5b6200271083620026d4565b946020939093013593505050565b600080602083850312156200273257600080fd5b82356001600160401b03808211156200274a57600080fd5b818501915085601f8301126200275f57600080fd5b8135818111156200276f57600080fd5b8660208260051b85010111156200278557600080fd5b60209290920196919550909350505050565b60008060008060808587031215620027ae57600080fd5b843593506020850135620027c28162002421565b925060408501359150620027d960608601620026d4565b905092959194509250565b60005b8381101562002801578181015183820152602001620027e7565b50506000910152565b6000815180845262002824816020860160208601620027e4565b601f01601f19169290920160200192915050565b6060815260006200284d60608301866200280a565b82810360208401526200286181866200280a565b91505060ff83166040830152949350505050565b6000602082840312156200288857600080fd5b81356200239c8162002421565b60008060008060808587031215620028ac57600080fd5b8435620028b98162002421565b93506020850135620028cb8162002421565b9250620028db60408601620026d4565b91506060850135620028ed8162002421565b939692955090935050565b6020815260006200239c60208301846200280a565b600181811c908216806200292257607f821691505b6020821081036200294357634e487b7160e01b600052602260045260246000fd5b50919050565b601f82111562000a46576000816000526020600020601f850160051c81016020861015620029745750805b601f850160051c820191505b81811015620029955782815560010162002980565b505050505050565b600019600383901b1c191660019190911b1790565b81516001600160401b03811115620029ce57620029ce62002479565b620029e681620029df84546200290d565b8462002949565b602080601f83116001811462002a1a576000841562002a055750858301515b62002a1185826200299d565b86555062002995565b600085815260208120601f198616915b8281101562002a4b5788860151825594840194600190910190840162002a2a565b508582101562002a6a5787850151600019600388901b60f8161c191681555b5050505050600190811b01905550565b6000835460018060a01b038116835260ff8160a01c161515602084015260ff8160a81c161515604084015260ff8160b01c16151560608401525060a060808301528251606060a084015262002ad46101008401826200280a565b90506020840151609f198483030160c085015262002af382826200280a565b91505060ff60408501511660e0840152809150509392505050565b634e487b7160e01b600052603260045260246000fd5b6000823560be1983360301811262002b3b57600080fd5b9190910192915050565b60006020828403121562002b5857600080fd5b6200239c82620026d4565b60006020828403121562002b7657600080fd5b5051919050565b60006001820162002b9e57634e487b7160e01b600052601160045260246000fd5b5060010190565b60006020828403121562002bb857600080fd5b81516200239c816200246a565b60008235605e1983360301811262002b3b57600080fd5b6000808335601e1984360301811262002bf457600080fd5b8301803591506001600160401b0382111562002c0f57600080fd5b60200191503681900382131562002c2557600080fd5b9250929050565b81835281816020850137506000828201602090810191909152601f909101601f19169091010190565b60608152600062002c6b60608301878962002c2c565b828103602084015262002c8081868862002c2c565b91505060018060a01b03831660408301529695505050505050565b6001600160401b0383111562002cb55762002cb562002479565b62002ccd8362002cc683546200290d565b8362002949565b6000601f84116001811462002d00576000851562002ceb5750838201355b62002cf786826200299d565b8455506200208c565b600083815260209020601f19861690835b8281101562002d33578685013582556020948501946001909201910162002d11565b508682101562002d515760001960f88860031b161c19848701351681555b505060018560011b0183555050505050565b600081356200084d816200252e565b62002d7e828362002bdc565b6001600160401b0381111562002d985762002d9862002479565b62002db08162002da985546200290d565b8562002949565b6000601f82116001811462002de3576000831562002dce5750838201355b62002dda84826200299d565b86555062002e40565b600085815260209020601f19841690835b8281101562002e16578685013582556020948501946001909201910162002df4565b508482101562002e345760001960f88660031b161c19848701351681555b505060018360011b0185555b5050505062002e53602083018362002bdc565b62002e6381836001860162002c9b565b505062000d4f62002e776040840162002d63565b6002830160ff821660ff198254161781555050565b6000808335601e1984360301811262002ea457600080fd5b83016020810192503590506001600160401b0381111562002ec457600080fd5b80360382131562002c2557600080fd5b60208152600062002ee6838462002e8c565b6060602085015262002efd60808501828462002c2c565b91505062002f0f602085018562002e8c565b848303601f1901604086015262002f2883828462002c2c565b92505050604084013562002f3c816200252e565b60ff166060939093019290925250919050565b6000825162002b3b818460208701620027e456fe60806040523480156200001157600080fd5b5060405162000fac38038062000fac8339810160408190526200003491620001ea565b8282600362000044838262000308565b50600462000053828262000308565b5062000065915060009050826200006f565b50505050620003d4565b60008281526005602090815260408083206001600160a01b038516845290915281205460ff16620001185760008381526005602090815260408083206001600160a01b03861684529091529020805460ff19166001179055620000cf3390565b6001600160a01b0316826001600160a01b0316847f2f8788117e7eff1d82e926ec794901d17c78024a50270940304540a733656f0d60405160405180910390a45060016200011c565b5060005b92915050565b634e487b7160e01b600052604160045260246000fd5b600082601f8301126200014a57600080fd5b81516001600160401b038082111562000167576200016762000122565b604051601f8301601f19908116603f0116810190828211818310171562000192576200019262000122565b8160405283815260209250866020858801011115620001b057600080fd5b600091505b83821015620001d45785820183015181830184015290820190620001b5565b6000602085830101528094505050505092915050565b6000806000606084860312156200020057600080fd5b83516001600160401b03808211156200021857600080fd5b620002268783880162000138565b945060208601519150808211156200023d57600080fd5b506200024c8682870162000138565b604086015190935090506001600160a01b03811681146200026c57600080fd5b809150509250925092565b600181811c908216806200028c57607f821691505b602082108103620002ad57634e487b7160e01b600052602260045260246000fd5b50919050565b601f82111562000303576000816000526020600020601f850160051c81016020861015620002de5750805b601f850160051c820191505b81811015620002ff57828155600101620002ea565b5050505b505050565b81516001600160401b0381111562000324576200032462000122565b6200033c8162000335845462000277565b84620002b3565b602080601f8311600181146200037457600084156200035b5750858301515b600019600386901b1c1916600185901b178555620002ff565b600085815260208120601f198616915b82811015620003a55788860151825594840194600190910190840162000384565b5085821015620003c45787850151600019600388901b60f8161c191681555b5050505050600190811b01905550565b610bc880620003e46000396000f3fe608060405234801561001057600080fd5b506004361061012c5760003560e01c806340c10f19116100ad57806395d89b411161007157806395d89b4114610288578063a217fddf14610290578063a9059cbb14610298578063d547741f146102ab578063dd62ed3e146102be57600080fd5b806340c10f191461021357806342966c681461022657806370a082311461023957806379cc67901461026257806391d148541461027557600080fd5b8063248a9ca3116100f4578063248a9ca3146101a657806324d7806c146101c95780632f2ff15d146101dc578063313ce567146101f157806336568abe1461020057600080fd5b806301ffc9a71461013157806306fdde0314610159578063095ea7b31461016e57806318160ddd1461018157806323b872dd14610193575b600080fd5b61014461013f3660046109ab565b6102f7565b60405190151581526020015b60405180910390f35b61016161032e565b60405161015091906109dc565b61014461017c366004610a47565b6103c0565b6002545b604051908152602001610150565b6101446101a1366004610a71565b6103d8565b6101856101b4366004610aad565b60009081526005602052604090206001015490565b6101446101d7366004610ac6565b6103fc565b6101ef6101ea366004610ae1565b610408565b005b60405160128152602001610150565b6101ef61020e366004610ae1565b610433565b6101ef610221366004610a47565b61046b565b6101ef610234366004610aad565b610480565b610185610247366004610ac6565b6001600160a01b031660009081526020819052604090205490565b6101ef610270366004610a47565b61048d565b610144610283366004610ae1565b6104a2565b6101616104cd565b610185600081565b6101446102a6366004610a47565b6104dc565b6101ef6102b9366004610ae1565b6104ea565b6101856102cc366004610b0d565b6001600160a01b03918216600090815260016020908152604080832093909416825291909152205490565b60006001600160e01b03198216637965db0b60e01b148061032857506301ffc9a760e01b6001600160e01b03198316145b92915050565b60606003805461033d90610b37565b80601f016020809104026020016040519081016040528092919081815260200182805461036990610b37565b80156103b65780601f1061038b576101008083540402835291602001916103b6565b820191906000526020600020905b81548152906001019060200180831161039957829003601f168201915b5050505050905090565b6000336103ce81858561050f565b5060019392505050565b6000336103e685828561051c565b6103f1858585610599565b506001949350505050565b600061032881836104a2565b600082815260056020526040902060010154610423816105f8565b61042d8383610602565b50505050565b6001600160a01b038116331461045c5760405163334bd91960e11b815260040160405180910390fd5b6104668282610696565b505050565b6000610476816105f8565b6104668383610703565b61048a338261073d565b50565b6000610498816105f8565b610466838361073d565b60009182526005602090815260408084206001600160a01b0393909316845291905290205460ff1690565b60606004805461033d90610b37565b6000336103ce818585610599565b600082815260056020526040902060010154610505816105f8565b61042d8383610696565b6104668383836001610773565b6001600160a01b03838116600090815260016020908152604080832093861683529290522054600019811461042d578181101561058a57604051637dc7a0d960e11b81526001600160a01b038416600482015260248101829052604481018390526064015b60405180910390fd5b61042d84848484036000610773565b6001600160a01b0383166105c357604051634b637e8f60e11b815260006004820152602401610581565b6001600160a01b0382166105ed5760405163ec442f0560e01b815260006004820152602401610581565b610466838383610848565b61048a8133610972565b600061060e83836104a2565b61068e5760008381526005602090815260408083206001600160a01b03861684529091529020805460ff191660011790556106463390565b6001600160a01b0316826001600160a01b0316847f2f8788117e7eff1d82e926ec794901d17c78024a50270940304540a733656f0d60405160405180910390a4506001610328565b506000610328565b60006106a283836104a2565b1561068e5760008381526005602090815260408083206001600160a01b0386168085529252808320805460ff1916905551339286917ff6391f5c32d9c69d2a47ea670b442974b53935d1edc7fd64eb21e047a839171b9190a4506001610328565b6001600160a01b03821661072d5760405163ec442f0560e01b815260006004820152602401610581565b61073960008383610848565b5050565b6001600160a01b03821661076757604051634b637e8f60e11b815260006004820152602401610581565b61073982600083610848565b6001600160a01b03841661079d5760405163e602df0560e01b815260006004820152602401610581565b6001600160a01b0383166107c757604051634a1406b160e11b815260006004820152602401610581565b6001600160a01b038085166000908152600160209081526040808320938716835292905220829055801561042d57826001600160a01b0316846001600160a01b03167f8c5be1e5ebec7d5bd14f71427d1e84f3dd0314c0f7b2291e5b200ac8c7c3b9258460405161083a91815260200190565b60405180910390a350505050565b6001600160a01b0383166108735780600260008282546108689190610b71565b909155506108e59050565b6001600160a01b038316600090815260208190526040902054818110156108c65760405163391434e360e21b81526001600160a01b03851660048201526024810182905260448101839052606401610581565b6001600160a01b03841660009081526020819052604090209082900390555b6001600160a01b03821661090157600280548290039055610920565b6001600160a01b03821660009081526020819052604090208054820190555b816001600160a01b0316836001600160a01b03167fddf252ad1be2c89b69c2b068fc378daa952ba7f163c4a11628f55a4df523b3ef8360405161096591815260200190565b60405180910390a3505050565b61097c82826104a2565b6107395760405163e2517d3f60e01b81526001600160a01b038216600482015260248101839052604401610581565b6000602082840312156109bd57600080fd5b81356001600160e01b0319811681146109d557600080fd5b9392505050565b60006020808352835180602085015260005b81811015610a0a578581018301518582016040015282016109ee565b506000604082860101526040601f19601f8301168501019250505092915050565b80356001600160a01b0381168114610a4257600080fd5b919050565b60008060408385031215610a5a57600080fd5b610a6383610a2b565b946020939093013593505050565b600080600060608486031215610a8657600080fd5b610a8f84610a2b565b9250610a9d60208501610a2b565b9150604084013590509250925092565b600060208284031215610abf57600080fd5b5035919050565b600060208284031215610ad857600080fd5b6109d582610a2b565b60008060408385031215610af457600080fd5b82359150610b0460208401610a2b565b90509250929050565b60008060408385031215610b2057600080fd5b610b2983610a2b565b9150610b0460208401610a2b565b600181811c90821680610b4b57607f821691505b602082108103610b6b57634e487b7160e01b600052602260045260246000fd5b50919050565b8082018082111561032857634e487b7160e01b600052601160045260246000fdfea2646970667358221220f5acc469668f196d57e9581f70df6c2951198c2f0aa3af65678bab54b180868964736f6c63430008160033360894a13ba1a3210667c828492db98dca3e2076cc3735a920a3ca505d382bbc65d7a28e3265b37a6474929f336521b332c1681b933f6cb9f3376673440d862a02dd7bc7dec4dceedda775e58dd541e08a116c6c53815c0bd028192f7b626800cd5ed15c6e187e77e9aee88184c21f4f2182ab5827cb3b7e07fbedcd63f033009b779b17422d0df92223018b32b4d1fa46e071723d6817e2486d003becc55f00a2646970667358221220bfa2ad6aee4e2aa719cf5da8a6319820f1a72b05843501694872e501d95982c764736f6c63430008160033",
  "linkReferences": {},
  "deployedLinkReferences": {}
}